S00D00005342494F332E73726563B7
S11300000C94C7000C94E4000C94E4000C94E400F9
S11300100C94E4000C94E4000C94E4000C94E400CC
S11300200C94E4000C94E4000C94E4000C94E400BC
S11300300C94E4000C94E4000C94E4000C94E400AC
S11300400C94E4000C94E4000C94B4050C94E400C7
S11300500C94E4000C94E4000C94E4000C94E4008C
S11300600C94E4000C94E4000C94E4000C94E4007C
S11300700C94E4000C94E4000C94E4000C94E4006C
S11300800C94E4000C94E4000C94E4006E616E00A3
S1130090696E660000407A10F35A00A0724E180987
S11300A00010A5D4E80000E87648170000E40B54DB
S11300B0020000CA9A3B000000E1F50500008096AA
S11300C09800000040420F000000A08601000000DC
S11300D0102700000000E803000000006400000096
S11300E000000A00000000000100000000002C765F
S11300F0D888DC674F0823DFC1DFAE59E1B1B7967A
S1130100E5E3E453C63AE651997696E8E6C28426D6
S1130110EB898C9B62ED407C6FFCEFBC9C9F40F2B2
S1130120BAA56FA5F490055A2AF75C936B6CF9672E
S11301306DC11BFCE0E40D47FEF520E6B500D0EDF3
S1130140902E0300943577050080841E080000205B
S11301504E0A000000C80C333333330F986E1283F9
S11301601141EF8D2114893BE65516CFFEE6DB18CD
S1130170D1844B381BF77C1D901DA4BBE424203292
S113018084725E228100C9F124ECA1E53D2711248B
S11301901FBECFEFD0E1DEBFCDBF11E0A0E0B1E0E4
S11301A0EEE4FCE102C005900D92A63AB107D9F73E
S11301B022E0A6EAB1E001C01D92A53DB207E1F735
S11301C00E94FF030C94250E0C940000EF92FF9202
S11301D00F931F93CF938C0181E0F8018083818377
S11301E082838383148215821682178280E190E0D1
S11301F00E94F50AF80191878087892B21F484E114
S113020091E00E94970DC0E028C0F801EC0FF11DA9
S11302108081882381F0F80180859185EC2EF12C72
S1130220EE0CFF1CE80EF91E84E190E00E94F50A32
S1130230F70191838083F80180859185EC2FF0E0AC
S1130240EE0FFF1FE80FF91F80819181892B21F4A4
S113025084E291E00E94970DCF5FCA30B0F280E44F
S113026087B984EC86B9CF911F910F91FF90EF90DD
S11302700895DC0190E02DC0FD01E90FF11D80819E
S1130280882331F187B1807F292F2F70822B87B982
S113029026B1206426B93699FECF18962D913C914B
S11302A01997E92FF0E0EE0FFF1FE20FF31F4081D3
S11302B051812091A801E22FF0E0EE0FFF1FE40F1F
S11302C0F51F24B135B13183208327B1207F27B9AD
S11302D09F5F983088F28091A8018A3018F48F5F6C
S11302E08093A8018091A8018A3011F41092A8018A
S11302F008952F923F924F925F926F927F928F92C6
S11303009F92AF92BF92CF92DF92EF92FF920F93A0
S11303101F93CF93DF9300D000D000D0CDB7DEB7CA
S11303209C838B83612C7BC0862D90E09A83898388
S1130330FC018B819C81E80FF91F808181113CC0F5
S1130340512C712CB0E0A0E01D821E82212C312C96
S11303503FC0EB81FC8120853185862D90E0880F9C
S1130360991F820F931FFC0120813181842D90E01D
S1130370880F991F820F931FFC01A080B180450153
S1130380282D392D40E050E060E070E080E090E0FE
S1130390A52CB72CCB2EDA2EED80FE80022D132D4A
S11303A00E94EC0A522E732EB42FA52F6D837E83E8
S11303B0282E392E439409C0412C512C712CB0E0C5
S11303C0A0E01D821E82212C312CF9E0F41508F6E0
S11303D00F2EFAE0AF2EF02DB12CC12CD12CE12C34
S11303E0F12C00E010E0252D372D4B2F5A2F6D8175
S11303F07E81822D932D0E94580A89809A80880CD0
S1130400991C880C991CEB81FC818E0E9F1E0E9406
S11304109B06F40163877487858796876394F7E066
S1130420F61508F081CF26960FB6F894DEBF0FBEFE
S1130430CDBFDF91CF911F910F91FF90EF90DF908F
S1130440CF90BF90AF909F908F907F906F905F9070
S11304504F903F902F900895AC0188B38F7E88BB56
S113046090E017C0FA01E90FF11D2081222321F049
S113047028B3206228BB03C028B32F7D28BB28B330
S1130480206428BB28B32F7B28BB28B32F7D28BB2F
S11304909F5F903138F388B3806188BB0895E82F5B
S11304A0F0E0EC59FD4F60830895CF93DF93EB01A7
S11304B08881813041F48A85882329F061E08AE0CB
S11304C00E944F0204C060E08AE00E944F028981CA
S11304D0813041F48B85882329F061E08CE00E940F
S11304E04F0204C060E08CE00E944F028A818111B7
S11304F006C08B81882331F081E090E005C081E063
S113050090E002C080E090E08130910579F42C8580
S1130510211105C02D85211102C080E090E0892BB6
S113052029F061E08BE00E944F0204C060E08BE0A0
S11305300E944F028D81811112C08C81811112C0E1
S11305408E81813091F08885811112C08F81811153
S113055012C08985882391F081E090E011C081E088
S113056090E00EC081E090E00BC081E090E008C014
S113057081E090E005C081E090E002C080E090E07E
S113058081309105D9F42F85211111C02E852111B7
S11305900EC02889213059F02A89211108C02989DF
S11305A0211105C02B89211102C080E090E0019740
S11305B029F461E089E00E944F0204C060E089E010
S11305C00E944F028C89882329F061E088E00E9410
S11305D04F0204C060E088E00E944F02DF91CF9197
S11305E00895DC018AB388608ABB8AB380618ABBC0
S11305F08AB380628ABB8AB380648ABB87B384600F
S113060087BB82B1846082B984B3806484BB84B3C1
S1130610806284BB84B3806184BB8AB380688ABBF4
S1130620E4E6F0E080818460808384B3806884BBE6
S113063087B3806187BB87B3806287BB87B38064DD
S113064087BB81B3806481BB81B3806881BB8081B7
S11306508160808380818260808384B3816084BB75
S113066084B3826084BB84B3846084BB84B38860B5
S113067084BB8AB381608ABB8AB382608ABB87B336
S1130680816087BB87B3826087BB82B1806882B98F
S113069087B3886087BB9BB391609BBB9BB392601D
S11306A09BBB98B3916098BB98B3926098BB93B18D
S11306B0906893B998B3986098BB54961C92089527
S11306C0FC018091A9018F3F11F48091A9018081DF
S11306D0813041F492858091A901981303C08BB3B2
S11306E088608BBB8181813041F493858091A9011D
S11306F0981303C08BB380618BBB8281813041F43A
S113070094858091A901981303C08BB380628BBB3D
S11307108381813041F495858091A901981303C0A8
S11307208BB380648BBB8481813041F49685809146
S1130730A901981303C085B3806485BB858181308A
S113074041F497858091A901981303C085B3806211
S113075085BB8681813041F490898091A9019813E9
S113076003C085B3806185BB8781813041F4918961
S11307708091A901981303C08BB380688BBB8085DB
S1130780813051F492898091A901981305C0A5E69E
S1130790B0E08C9184608C938185813041F493899D
S11307A08091A901981303C085B3806885BB8091AB
S11307B0A9018E3FF1F48BB3877F8BBB8BB38F7E04
S11307C08BBB8BB38F7D8BBB8BB38F7B8BBB85B389
S11307D08F7B85BB85B38F7D85BB85B38F7E85BBC2
S11307E08BB38F778BBB8BB38B7F8BBB8BB38F77A9
S11307F08BBB8091A9018F5F8093A901089584E741
S113080092E00E94F10287ED91E00E949F058CEA3C
S113081091E00E94E60089E892E00E947B0485E36F
S113082091E09F938F930E94810DC091580243E001
S113083050E06EE371E087ED91E00E94050D1F9298
S1130840CF939F938F9380E591E09F938F930E9422
S1130850810D8EE391E09F938F9386E591E09F93C2
S11308608F930E94810D1F9280E18F9381E691E026
S11308709F938F930E94810D2FEF83ED90E321507E
S113088080409040E1F700C00000E4E7F2E081E03E
S11308908083828781838387828384878483868716
S11308A0848BCF010E94600364E772E084E692E0E7
S11308B00E94550284E692E00E942C028CEA91E0A8
S11308C00E9439018CEA91E00E94790189E892E062
S11308D00E947F0487ED91E00E94E40587ED91E09A
S11308E00E9428068DB79EB740960FB6F8949EBF17
S11308F00FBE8DBF94CF88E48093700008953F921B
S11309004F925F926F927F928F929F92AF92BF921B
S1130910CF92DF92EF92FF920F931F93CF93DF93C7
S1130920EC01A0E0512C612C712C812C912CB0E0B5
S1130930312C412C23C0EA2FF0E0EE0FFF1FEC0F07
S1130940FD1FA080B1802A2D3B2D40E050E060E0E7
S113095070E080E090E0A52CB62CC72CD82CE92CB4
S1130960FB2E032D142D0E94EC0A522E632E742E9E
S1130970852E962EB72F382E492EAF5FAA30D8F287
S11309800F2EFAE0AF2EF02DB12CC12CD12CE12C7E
S1130990F12C00E010E0252D362D472D582D692D22
S11309A07B2F832D942D0E94580A2CAF3DAFA0E0DD
S11309B0512C612C712C812C912CB0E0312C412CC8
S11309C024C0EA2FF0E03A96EE0FFF1FEC0FFD1F54
S11309D0A080B1802A2D3B2D40E050E060E070E023
S11309E080E090E0A52CB62CC72CD82CE92CFB2E4B
S11309F0032D142D0E94EC0A522E632E742E852E84
S1130A00962EB72F382E492EAF5FAA30D0F20F2E74
S1130A10FAE0AF2EF02DB12CC12CD12CE12CF12C0D
S1130A2000E010E0252D362D472D582D692D7B2F04
S1130A30832D942D0E94580A2EAF3FAFA0E0512C75
S1130A40612C712C812C912CB0E0312C412C24C0D0
S1130A50EA2FF0E07496EE0FFF1FEC0FFD1FA0804D
S1130A60B1802A2D3B2D40E050E060E070E080E052
S1130A7090E0A52CB62CC72CD82CE92CFB2E032DEA
S1130A80142D0E94EC0A522E632E742E852E962E5F
S1130A90B72F382E492EAF5FAA30D0F20F2EFAE0CE
S1130AA0AF2EF02DB12CC12CD12CE12CF12C00E077
S1130AB010E0252D362D472D582D692D7B2F832DA4
S1130AC0942D0E94580AC05CDF4F28833983DF913C
S1130AD0CF911F910F91FF90EF90DF90CF90BF9037
S1130AE0AF909F908F907F906F905F904F903F90CA
S1130AF00895CF93C82F8AB18F778AB98AB18F7E30
S1130B008AB9CA3019F48DE00E94790583B18460F2
S1130B1083B95D9BFECFCCB987E592E00197F1F7ED
S1130B2000C0000083B18B7F83B98AB180688AB921
S1130B308AB180618AB980E090E0CF9108951092E3
S1130B40900023E329B926E02093950028E92AB9E7
S1130B5026E031E03093D2022093D10280589F4F97
S1130B60FC011082789408951F920F920FB60F9291
S1130B7011248F939F93EF93FF93809157028111D8
S1130B801AC09CB19B3711F41092AA019D3739F415
S1130B9081E0809357028091AA018093580280914A
S1130BA0AA01882344F0E82FF0E0E952FE4F908335
S1130BB08F5F8093AA01FF91EF919F918F910F9086
S1130BC00FBE0F901F901895CF93DF93FC01E05850
S1130BD0FF4F20812223C9F1EC013196408150E07E
S1130BE06EE671E00E94050D892B69F481E0FE0137
S1130BF0ED57FF4F808386E791E09F938F930E9488
S1130C00810D0F900F90FE01EF57FF4F408150E090
S1130C1060E871E0CE010E94050D892B29F481E082
S1130C20FE01EC57FF4F808340E150E06EE371E03A
S1130C30CE010E94050D892B29F481E0FE01EB57BA
S1130C40FF4F8083C058DF4F1882DF91CF91089502
S1130C500F931F93CF93DF93CDB7DEB764970FB68F
S1130C60F894DEBF0FBECDBF8C017894F801ED5728
S1130C70FF4F8081882369F088E891E09F938F93E8
S1130C800E94810DF801ED57FF4F10820F900F90D5
S1130C9046C0F801EC57FF4F8081882369F08FE844
S1130CA091E09F938F930E94810DF801EC57FF4FC1
S1130CB010820F900F9033C0F801EB57FF4F8081E3
S1130CC0882329F186E991E09F938F930E94810DF7
S1130CD0B801CE0101960E94FE0C6AE370E0CE01D9
S1130CE001960E94F90C6AE370E080E090E00E94B3
S1130CF0F90C9F938F9381EA91E09F938F930E94C5
S1130D00810D0F900F900F900F900F900F90809186
S1130D10AB018F5F8093AB018A3008F4A7CFF894BE
S1130D2064960FB6F894DEBF0FBECDBFDF91CF91AE
S1130D301F910F910895E894F92F96EBFF2381F00A
S1130D40121613061406440B9395F695879577951A
S1130D50679557954040FF23B9F71BC0992708951D
S1130D60882351F49850D2F7872B762F652F542F70
S1130D70432F322F20E0B1F3121613061406440B4E
S1130D8088233AF09A95440F551F661F771F881FD2
S1130D90CAF755234AF4440F551F11F460FF04C0E9
S1130DA06F5F7F4F8F4F9F4F880F9695879597F969
S1130DB00895A0E1B0E0EFEDF6E00C94B50A7C01F3
S1130DC01B016A01FC0117821682838181FF44C3DF
S1130DD09E012F5F3F4F3901F7019381F10193FD8C
S1130DE0859193FF81911F01882309F431C38532D2
S1130DF039F493FD859193FF81911F01853239F474
S1130E00B70190E00E94450D56016501E5CF10E061
S1130E10512C912CFFE1F915D8F08B3279F038F48C
S1130E20803279F08332A1F4F92DF0612EC08D3235
S1130E3061F0803369F4292D21602DC0392D326091
S1130E40932E892D8460982E2AC0E92DE86015C060
S1130E5097FC2DC020ED280F2A3088F496FE06C09A
S1130E603AE0139F200D1124122F19C08AE0589ED6
S1130E70200D1124522EE92DE0629E2E10C08E32D8
S1130E8031F496FCE5C2F92DF0649F2E08C08C362F
S1130E9021F4292D2068922E02C0883641F4F101F4
S1130EA093FD859193FF81911F018111B3CF9BEB3A
S1130EB0980F933020F4992D9061805E07C09BE9D0
S1130EC0980F933008F066C1992D9F7E96FF16E027
S1130ED09F73992E853619F49064992E08C086362E
S1130EE021F4392F3068932E02C01111115097FE4E
S1130EF007C01C3350F444244394410E27E00BC034
S1130F00183038F027E017E005C027E09CE3492EAD
S1130F1002C0212F412C560184E0A80EB11CF60119
S1130F206081718182819381042DA3010E94160C3A
S1130F306C01F981FC87F0FF02C0F3FF06C091FC4D
S1130F4006C092FE06C000E205C00DE203C00BE23B
S1130F5001C000E08C858C7019F001115AC29BC24B
S1130F6097FE10C04C0CFC85F4FF04C08A818133C9
S1130F7009F44A94141474F528E0241578F588E0EB
S1130F80482E2CC096FC2AC0812F90E08C159D051C
S1130F909CF03CEFC3163FEFD30674F0892D8068B4
S1130FA0982E0AC0E2E0F0E0EC0FFD1FE10FF11D06
S1130FB08081803319F411501111F4CF97FE0EC0C3
S1130FC044244394410E812F90E0C816D9062CF492
S1130FD01C1904C04424439401C010E097FE06C0C9
S1130FE01C141D0434F4C601019605C085E090E08C
S1130FF002C081E090E001110196112331F0212F0C
S113100030E02F5F3F4F820F931F252D30E0821772
S1131010930714F4581A01C0512C892D897049F48E
S1131020552039F0B70180E290E00E94450D5A94B2
S1131030F7CF002329F0B701802F90E00E94450DDF
S113104093FC09C0552039F0B70180E390E00E9479
S1131050450D5A94F7CF97FE4CC04601D7FE02C007
S1131060812C912CC60188199909F301E80FF91F05
S1131070FE87ED87960124193109388B2F87012FBC
S113108010E01195019511093FEF8316930629F499
S1131090B7018EE290E00E94450DC814D9044CF0CB
S11310A08F8598898815990524F4ED85FE858181BD
S11310B001C080E3F1E08F1A91082D853E852F5FF2
S11310C03F4F3E872D87801691062CF0B70190E0A4
S11310D00E94450DD9CFC814D90441F49A8196339E
S11310E020F4953319F43C8534FF81E3B70190E093
S11310F04EC08A81813319F09C859F7E9C87B701FD
S113110090E00E94450D111105C094FC18C085E6BD
S113111090E017C0B7018EE290E00E94450D1E5F7B
S113112082E001E0080FF301E80FF11D8081B701AF
S113113090E00E94450D802F0113F3CFE6CF85E4A4
S113114090E0B7010E94450DD7FC06C0C114D1043C
S113115041F4EC85E4FF05C0D194C194D1088DE23B
S113116001C08BE2B70190E00E94450D80E32AE0C4
S1131170C216D1042CF08F5FFAE0CF1AD108F7CF52
S1131180B70190E00E94450DB701C601C0960E94C8
S1131190450D54C1833631F0833779F0833509F036
S11311A056C020C0560132E0A30EB11CF601808166
S11311B0898301E010E0630112C05601F2E0AF0E32
S11311C0B11CF601C080D18096FE03C0612F70E08F
S11311D002C06FEF7FEFC6010E94130D8C01F92D41
S11311E0FF7714C0560122E0A20EB11CF601C080A4
S11311F0D18096FE03C0612F70E002C06FEF7FEFD5
S1131200C6010E94EE0C8C01F92DF0689F2EF3FDAF
S11312101AC0852D90E008171907A8F4B70180E2D9
S113122090E00E94450D5A94F4CFF60197FC859105
S113123097FE81916F01B70190E00E94450D511016
S11312405A94015011090115110579F7F7C0843634
S113125011F0893661F5560197FE09C024E0A20E0B
S1131260B11CF60160817181828193810AC0F2E030
S1131270AF0EB11CF60160817181072E000C880B42
S1131280990BF92DFF769F2E97FF09C090958095B5
S1131290709561957F4F8F4F9F4FF0689F2E2AE086
S11312A030E0A3010E94C70DC82EC6183FC0092D07
S11312B0853721F40F7E2AE030E01DC0097F8F3688
S11312C091F018F4883559F0C3C0803719F0883785
S11312D011F0BEC0006104FF09C0046007C094FEA1
S11312E008C0066006C028E030E005C020E130E018
S11312F002C020E132E0560107FF09C084E0A80ED5
S1131300B11CF601608171818281938108C0F2E091
S1131310AF0EB11CF6016081718180E090E0A30101
S11313200E94C70DC82EC6180F77902E96FE0BC0CC
S1131330092D0E7FC11650F494FE0AC092FC08C019
S1131340092D0E7E05C0DC2C092D03C0DC2C01C048
S1131350D12E04FF0DC0FE01EC0DF11D8081803300
S113136011F4097E09C002FF06C0D394D39404C0CB
S1131370802F867809F0D39403FD11C000FF06C0C6
S11313801C2DD51480F4150D1D190DC0D51458F459
S1131390B70180E290E00E94450DD394F7CFD514B5
S11313A010F45D1801C0512C04FF10C0B70180E394
S11313B090E00E94450D02FF17C001FD03C088E7BD
S11313C090E002C088E590E0B7010CC0802F8678D9
S11313D059F001FF02C08BE201C080E207FD8DE2FB
S11313E0B70190E00E94450DC11638F4B70180E3BF
S11313F090E00E94450D1150F7CFCA94F301EC0D13
S1131400F11D8081B70190E00E94450DC110F5CF18
S113141015C0F4E0F51560F584E0581A93FE1FC07A
S1131420011127C02C8523FF2AC00CE810E0392DB8
S11314303071932EF8018491811124C0552009F450
S1131440E4CCB70180E290E00E94450D5A94F6CFB7
S1131450F7018681978126C08FEF9FEF23C0B701E4
S113146080E290E00E94450D5A945110F8CFD8CFF5
S1131470512CB701802F90E00E94450DD3CF00E995
S113148010E0D5CF91108052B70190E00E94450D35
S11314900F5F1F4FCFCF23E0251510F483E0BDCF9E
S11314A0512CC0CF6096E2E10C94D10A689401C03B
S11314B0E8948F929F92CF93DF930E94640ADF9106
S11314C0CF919F908F90089588249924F401E4018A
S11314D0B0E49F93AA279A158B049C04ED05FE059E
S11314E0CF05D007A10798F4AD2FDC2FCF2FFE2F07
S11314F0E92D982C892E982F872F762F652F542F1E
S1131500432F322F2227B85031F7BF9127C01B2E0B
S1131510BF91BB27220F331F441F551F661F771F20
S1131520881F991F881C991CEE1FFF1FCC1FDD1FED
S1131530AA1FBB1F8A149B04EC05FD05CE05DF051D
S1131540A007B10748F08A189B08EC09FD09CE09E9
S1131550DF09A00BB10B21601A94E1F62EF494017B
S1131560AF01BE01CD01000C08952F923F924F921E
S11315705F926F927F928F929F92AF92BF92CF921F
S1131580DF92EF92FF920F931F93CF93DF93CDB728
S1131590DEB7CA1BDB0B0FB6F894DEBF0FBECDBFA0
S11315A009942A88398848885F846E847D848C8471
S11315B09B84AA84B984C884DF80EE80FD800C817A
S11315C01B81AA81B981CE0FD11D0FB6F894DEBF5D
S11315D00FBECDBFED0108952A0D3B1D4C1D5D1DB1
S11315E06E1D7F1D801F911F08950F931F93CF932E
S11315F0DF938230910510F482E090E0E091CD0217
S1131600F091CE0220E030E0A0E0B0E0309719F194
S1131610408151810281138148175907C8F084170A
S1131620950769F4109731F012960C93129713965C
S11316301C9327C00093CD021093CE0222C0211523
S1131640310519F04217530718F49A01BD01EF014F
S1131650DF01F801DBCF21153105F9F0281B390B27
S11316602430310580F48A819B816115710521F054
S1131670FB019383828304C09093CE028093CD02B6
S1131680FE01329644C0FE01E20FF31F8193919351
S113169022503109398328833AC02091CB023091FA
S11316A0CC02232B41F420910201309103013093A9
S11316B0CC022093CB02209100013091010121152D
S11316C0310541F42DB73EB7409104015091050115
S11316D0241B350BE091CB02F091CC02E217F30707
S11316E0A0F42E1B3F0B2817390778F0AC014E5F8E
S11316F05F4F2417350748F04E0F5F1F5093CC02FD
S11317004093CB028193919302C0E0E0F0E0CF01DB
S1131710DF91CF911F910F910895CF93DF9300979D
S113172009F481C0FC01329713821282A091CD0288
S1131730B091CE02109781F420813181820F931FE2
S11317402091CB023091CC022817390751F5F09340
S1131750CC02E093CB0267C0ED0120E030E0CE176D
S1131760DF0740F44A815B819E0141155105F1F088
S1131770EA01F5CFD383C28340815181840F951F41
S1131780C817D90759F488819981840F951F029647
S1131790918380838A819B81938382832115310580
S11317A029F4F093CE02E093CD023DC0E901FB831E
S11317B0EA8349915991C40FD51FEC17FD0761F4D1
S11317C080819181840F951F0296E9019983888312
S11317D0828193819B838A83E0E0F0E012968D916D
S11317E09C911397009719F0FD01DC01F7CF8D91BF
S11317F09C9111979D012E5F3F4F820F931F209163
S1131800CB023091CC022817390769F4309729F4B8
S11318101092CE021092CD0202C013821282B093B3
S1131820CC02A093CB02DF91CF910895283008F029
S113183027E03327DA01990F311D87FD9160009667
S11318406105710539F432602E5F3D9330E32A95CA
S1131850E1F708959F3F30F080387105610509F084
S11318603C5F3C5F3D93913008F08068911DDF93AD
S1131870CF931F930F93FF92EF92192F987F969512
S1131880E92F96959695E90FFF27E251FF4F992787
S11318903327EE24FF24A701E70105900894079459
S11318A028F4360FE71EF81E491F511D660F771FD7
S11318B0881F991F0694A1F70590079428F4E70E52
S11318C0F81E491F561FC11D770F881F991F661FD9
S11318D00694A1F70590079428F4F80E491F561FA3
S11318E0C71FD11D880F991F661F771F0694A1F784
S11318F00590079420F4490F561FC71FD81F990F4E
S1131900661F771F881F0694A9F784911095177096
S113191041F0D695C79557954795F794E7941A954E
S1131920C1F7E4E9F0E0689415901591359165915B
S1131930959105907FE27395E118F10A430B560BDC
S1131940C90BD009C0F7E10CF11E431F561FC91F74
S1131950D01D7EF4703311F48A95E6CFE8940150DB
S113196030F0080F0AF40027021708F4202F2395FB
S1131970022F7A3328F079E37D932A95E9F710C092
S11319807D932A9589F606949795679537951795CB
S11319901794E118F10A430B560BC90BD00998F0C0
S11319A023957E9173957A3308F070E37C9320132A
S11319B0B8F77E9170617D9330F0839571E37D93E8
S11319C070E32A95E1F71124EF90FF900F911F9196
S11319D0CF91DF91992787FD90950895FC0105909B
S11319E0615070400110D8F7809590958E0F9F1F1D
S11319F0089546EA51E00E941E0D0895FB01DC01A2
S1131A0001900D920020E1F70895FB01DC014150A3
S1131A10504030F08D910190801919F40020B9F7ED
S1131A20881B990B0895FC016150704001900110CE
S1131A30D8F7809590958E0F9F1F0895FA01A19174
S1131A40B081009719F41097E1F0CD01DC01CD01CC
S1131A500D90002011F4C00113C0FB012191222339
S1131A6019F02015D9F7F3CFFB012191201519F4B2
S1131A701E92119606C02223C1F70D900020A1F7F3
S1131A80D001FA01A193B08308950F931F93CF93CC
S1131A90DF93FB01238121FD03C08FEF9FEF2CC057
S1131AA022FF16C04681578124813581421753078E
S1131AB044F4A081B1819D012F5F3F4F3183208386
S1131AC08C93268137812F5F3F4F3783268314C041
S1131AD08B01EC01FB010084F185E02D0995892B34
S1131AE0E1F6D80116968D919C9117970196179659
S1131AF09C938E931697CE01DF91CF911F910F91F6
S1131B000895A0E0B0E0E7E8FDE00C94C50AAE015A
S1131B104B5F5F4FFA0161917191AF018091D102E6
S1131B209091D2020E94D906E2E00C94E10A0F934C
S1131B301F93CF93DF93E091D102F091D2022381DE
S1131B4021FF1BC08C01D0E0C0E0F80181918F011E
S1131B506091D1027091D202DB011896ED91FC9153
S1131B601997882331F00995892B79F3DFEFCFEFAB
S1131B70ECCF8AE00995892B19F08FEF9FEF02C013
S1131B808D2F9C2FDF91CF911F910F910895FA0112
S1131B90AA27283051F1203181F1E8946F936E7FA8
S1131BA06E5F7F4F8F4F9F4FAF4FB1E03ED0B4E099
S1131BB03CD0670F781F891F9A1FA11D680F791FDA
S1131BC08A1F911DA11D6A0F711D811D911DA11DEB
S1131BD020D009F468943F912AE0269F11243019FB
S1131BE0305D3193DEF6CF010895462F4770405D96
S1131BF04193B3E00FD0C9F7F6CF462F4F70405D45
S1131C004A3318F0495D31FD4052419302D0A9F79F
S1131C10EACFB4E0A6959795879577956795BA9599
S1131C20C9F700976105710508959B01AC010A2E5F
S1131C3006945795479537952795BA95C9F7620F36
S1111C40731F841F951FA01D0895F894FFCFF5
S1131C4E0000D5022000000000020000000079050B
S1131C5E00000000414443205A65696C65204E55CE
S1131C6E4C4C2000414443205370616C7465204EEB
S1131C7E554C4C20004275666665723A20007B53C3
S1131C8E45542054454D50204C20544F3A207D004D
S1131C9E25642025640057756E7363683A20257396
S1131CAE004C656E3A20256420456E6465007B54B5
S1131CBE41534B317D00416C6C6573204775740044
S1131CCE7B5441534B327D0048616C6C6F3100483C
S1131CDE616C6C6F32000A207365687220677574CC
S1091CEE002573200A002A
S9030000FC
