S00D00005342494F332E73726563B7
S11300000C94C7000C94E4000C94E4000C94E400F9
S11300100C94E4000C94E4000C94E4000C94E400CC
S11300200C94E4000C94E4000C94E4000C94E400BC
S11300300C94E4000C94E4000C94E4000C94E400AC
S11300400C94E4000C94E4000C941D070C94E4005C
S11300500C94E4000C94E4000C94E4000C94E4008C
S11300600C94E4000C94E4000C94E4000C94E4007C
S11300700C94E4000C94E4000C94E4000C94E4006C
S11300800C94E4000C94E4000C94E4006E616E00A3
S1130090696E660000407A10F35A00A0724E180987
S11300A00010A5D4E80000E87648170000E40B54DB
S11300B0020000CA9A3B000000E1F50500008096AA
S11300C09800000040420F000000A08601000000DC
S11300D0102700000000E803000000006400000096
S11300E000000A00000000000100000000002C765F
S11300F0D888DC674F0823DFC1DFAE59E1B1B7967A
S1130100E5E3E453C63AE651997696E8E6C28426D6
S1130110EB898C9B62ED407C6FFCEFBC9C9F40F2B2
S1130120BAA56FA5F490055A2AF75C936B6CF9672E
S11301306DC11BFCE0E40D47FEF520E6B500D0EDF3
S1130140902E0300943577050080841E080000205B
S11301504E0A000000C80C333333330F986E1283F9
S11301601141EF8D2114893BE65516CFFEE6DB18CD
S1130170D1844B381BF77C1D901DA4BBE424203292
S113018084725E228100C9F124ECA1E53D2711248B
S11301901FBECFEFD0E1DEBFCDBF12E0A0E0B1E0E3
S11301A0E8E9F5E202C005900D92A03BB107D9F74A
S11301B023E0A0EBB2E001C01D92A63FB207E1F735
S11301C00E940C040C94CA120C940000CF92DF928B
S11301D0EF92FF920F931F93CF938C0181E0F8016C
S11301E0808381838283838314821582168217829B
S11301F080E190E00E94850FF80191878087892B28
S113020021F484E191E00E941A12C0E031C0EC2E86
S1130210F12CF801EE0DFF1D8081882379F0F8019F
S1130220808591856701CC0CDD1CC80ED91E84E144
S113023090E00E94850FF60191838083F801808508
S11302409185EC2FF0E0EE0FFF1FE80FF91F80817E
S11302509181892B61F4FF92EF9284E291E09F9364
S11302608F930E9404120F900F900F900F90CF5F06
S1130270CA3068F280E487B984EC86B9CF911F91C3
S11302800F91FF90EF90DF90CF900895DC0190E004
S11302902DC0FD01E90FF11D8081882331F187B163
S11302A0807F292F2F70822B87B926B1206426B92D
S11302B03699FECF18962D913C911997E92FF0E0CD
S11302C0EE0FFF1FE20FF31F408151812091B00216
S11302D0E22FF0E0EE0FFF1FE40FF51F24B135B15C
S11302E03183208327B1207F27B99F5F983088F21C
S11302F08091B0028A3018F48F5F8093B0028091AD
S1130300B0028A3011F41092B00208952F923F92F5
S11303104F925F926F927F928F929F92AF92BF9211
S1130320CF92DF92EF92FF920F931F93CF93DF93BD
S113033000D000D000D0CDB7DEB79C838B83612C76
S11303407BC0862D90E09A838983FC018B819C81FC
S1130350E80FF91F808181113CC0512C712CB0E051
S1130360A0E01D821E82212C312C3FC0EB81FC8138
S113037020853185862D90E0880F991F820F931F69
S1130380FC0120813181842D90E0880F991F820F18
S1130390931FFC01A080B1804501282D392D40E038
S11303A050E060E070E080E090E0A52CB72CCB2E0C
S11303B0DA2EED80FE80022D132D0E947C0F522E2A
S11303C0732EB42FA52F6D837E83282E392E43944C
S11303D009C0412C512C712CB0E0A0E01D821E827A
S11303E0212C312CF9E0F41508F60F2EFAE0AF2E8B
S11303F0F02DB12CC12CD12CE12CF12C00E010E01B
S1130400252D372D4B2F5A2F6D817E81822D932DD3
S11304100E94E80E89809A80880C991C880C991C8B
S1130420EB81FC818E0E9F1E0E946D0AF40163878E
S11304307487858796876394F7E0F61508F081CF73
S113044026960FB6F894DEBF0FBECDBFDF91CF91D5
S11304501F910F91FF90EF90DF90CF90BF90AF90DE
S11304609F908F907F906F905F904F903F902F90D0
S11304700895AC0188B38F7E88BB90E017C0FA0161
S1130480E90FF11D2081222321F028B3206228BB2B
S113049003C028B32F7D28BB28B3206428BB28B30E
S11304A02F7B28BB28B32F7D28BB9F5F903138F367
S11304B088B3806188BB0895E82FF0E0E159FC4FD0
S11304C060830895CF93DF93EB018881813041F4F9
S11304D08A85882329F061E08AE00E945C0204C0D6
S11304E060E08AE00E945C028981813041F48B855E
S11304F0882329F061E08CE00E945C0204C060E083
S11305008CE00E945C028A81811106C08B81882361
S113051031F081E090E005C081E090E002C080E02D
S113052090E08130910579F42C85211105C02D8549
S1130530211102C080E090E0892B29F061E08BE07A
S11305400E945C0204C060E08BE00E945C028D812A
S1130550811112C08C81811112C08E81813091F081
S11305608885811112C08F81811112C089858823E9
S113057091F081E090E011C081E090E00EC081E054
S113058090E00BC081E090E008C081E090E005C0FD
S113059081E090E002C080E090E081309105D9F4E0
S11305A02F85211111C02E8521110EC028892130DB
S11305B059F02A89211108C02989211105C02B89E4
S11305C0211102C080E090E0019729F461E089E004
S11305D00E945C0204C060E089E00E945C028C8995
S11305E0882329F061E088E00E945C0204C060E096
S11305F088E00E945C02DF91CF910895DC018AB308
S113060088608ABB8AB380618ABB8AB380628ABBF2
S11306108AB380648ABB87B3846087BB82B18460F9
S113062082B984B3806484BB84B3806284BB84B3A2
S1130630806184BB8AB380688ABBE4E6F0E0808191
S11306408460808384B3806884BB87B3806187BB04
S113065087B3806287BB87B3806487BB81B38064C0
S113066081BB81B3806881BB80818160808380810C
S11306708260808384B3816084BB84B3826084BBE2
S113068084B3846084BB84B3886084BB8AB3816090
S11306908ABB8AB382608ABB87B3816087BB87B316
S11306A0826087BB82B1806882B987B3886087BB68
S11306B09BB391609BBB9BB392609BBB98B39160CF
S11306C098BB98B3926098BB93B1906893B998B370
S11306D0986098BB54961C920895FC018091B102D5
S11306E08F3F11F48091B1028081813041F4928571
S11306F08091B102981303C08BB388608BBB818156
S1130700813041F493858091B102981303C08BB377
S113071080618BBB8281813041F494858091B102E8
S1130720981303C08BB380628BBB8381813041F407
S113073095858091B102981303C08BB380648BBB01
S11307408481813041F496858091B102981303C06D
S113075085B3806485BB8581813041F49785809120
S1130760B102981303C085B3806285BB8681813052
S113077041F490898091B102981303C085B38061DC
S113078085BB8781813041F491898091B1029813AE
S113079003C08BB380688BBB8085813051F4928910
S11307A08091B102981305C0A5E6B0E08C918460F5
S11307B08C938185813041F493898091B10298139F
S11307C003C085B3806885BB8091B1028E3FF1F48C
S11307D08BB3877F8BBB8BB38F7E8BBB8BB38F7DB0
S11307E08BBB8BB38F7B8BBB85B38F7B85BB85B377
S11307F08F7D85BB85B38F7E85BB8BB38F778BBB9A
S11308008BB38B7F8BBB8BB38F778BBB8091B10208
S11308108F5F8093B10208958FE793E00E94FE02F8
S113082082EE92E00E94050787EB92E00E94E600C8
S113083084E993E00E94E0040E945B042FEF83EDBF
S113084090E3215080409040E1F700C00000EFE7C2
S1130850F3E081E080838287818383878283848736
S113086084838687848BCF010E946D036FE773E0D6
S11308708FE693E00E9462028FE693E00E943902C1
S11308800E948B050E9450050E946D0587EB92E043
S11308900E94460187EB92E00E94860184E993E07E
S11308A00E94A80582EE92E00E944D0782EE92E03B
S11308B00E941408C1CFCF93DF938AE391E09F9302
S11308C08F930E9404128DE391E00E941A12C7EBE9
S11308D0D2E08A8D8F93898D8F93888D8F938F89A2
S11308E08F9388E491E09F938F930E9404128E89E2
S11308F08F938D898F938C898F938B898F9384E5C4
S113090091E09F938F930E9404126F85788989895F
S11309109A892B853C854D855E850E94010A20E0DD
S113092030E040E05FE30E94FC0A9F938F937F9343
S11309306F9383E691E09F938F930E940412E4E9FE
S1130940F3E087AD8F9386AD8F9385AD8F9384ADA0
S11309508F9381E791E09F938F930E940412E4EDBB
S1130960F3E083818F9382818F9381818F93808140
S11309708F938FE791E09F938F930E9404128DB71A
S11309809EB780960FB6F8949EBF0FBE8DBFE8ED5C
S1130990F3E083818F9382818F9381818F93808110
S11309A08F938DE891E09F938F930E9404120F9090
S11309B00F900F900F900F900F90DF91CF910895AB
S11309C088E480937000089584EA80937400809191
S11309D074008823E4F7089584E9809374000895EB
S11309E08093730084E8809374008091740088235A
S11309F0E4F70895813021F484EC8093740003C0FB
S1130A0084E880937400809174008823E4F78091D3
S1130A1073000895CF93DF93C82F0E94E4048C2FB2
S1130A2090E0880F991F81600E94F00481E00E9489
S1130A30FA04C82F81E00E94FA04D82F0E94EC0423
S1130A408C2F90E0982F88278D2BDF91CF910895DC
S1130A50CF93DF93C82FD62F0E94E4048C2F880FE6
S1130A600E94F0048D2F0E94F0040E94E4048C2F55
S1130A7090E0880F991F81600E94F00481E00E9439
S1130A80FA04C82F80E00E94FA04D82F0E94EC04D4
S1130A908C2F90E0982F88278D2BDF91CF9108958C
S1130AA0CF93DF938091B4028A3011F41092B40290
S1130AB0C091B402D0E065EE80E40E942805CC0F1A
S1130AC0DD1FCC56DC4F998388838091B4028F5FFD
S1130AD08093B402DF91CF910895CF93DF938091F7
S1130AE0B3028A3011F41092B302C091B302D0E081
S1130AF063EE80E40E9428052A96CC0FDD1FCC56B5
S1130B00DC4F998388838091B3028F5F8093B30213
S1130B10DF91CF910895CF93DF938091B2028A3011
S1130B2011F41092B202C091B202D0E083E20E94AA
S1130B300A056496CC0FDD1FCC56DC4F998388835D
S1130B408091B2028F5F8093B202DF91CF910895BA
S1130B503F924F925F926F927F928F929F92AF9249
S1130B60BF92CF92DF92EF92FF920F931F93CF9396
S1130B70DF93EC01A0E0512C612C712C812C912C81
S1130B80B0E0312C412C23C0EA2FF0E0EE0FFF1F20
S1130B90EC0FFD1FA080B1802A2D3B2D40E050E0DA
S1130BA060E070E080E090E0A52CB62CC72CD82C37
S1130BB0E92CFB2E032D142D0E947C0F522E632E44
S1130BC0742E852E962EB72F382E492EAF5FAA305D
S1130BD0D8F20F2EFAE0AF2EF02DB12CC12CD12C6F
S1130BE0E12CF12C00E010E0252D362D472D582D59
S1130BF0692D7B2F832D942D0E94E80E0E946D0A8F
S1130C006CAF7DAF8EAF9FAF20E030E04AEF52E48F
S1130C100E94FC0A20E030E040E857E30E94FC0A0E
S1130C2020E030E040EC50E40E94000A6CAF7DAF5D
S1130C308EAF9FAFA0E0512C612C712C812C912C94
S1130C40B0E0312C412C24C0EA2FF0E03A96EE0FAC
S1130C50FF1FEC0FFD1FA080B1802A2D3B2D40E02B
S1130C6050E060E070E080E090E0A52CB62CC72C4A
S1130C70D82CE92CFB2E032D142D0E947C0F522E10
S1130C80632E742E852E962EB72F382E492EAF5FE5
S1130C90AA30D0F20F2EFAE0AF2EF02DB12CC12CD9
S1130CA0D12CE12CF12C00E010E0252D362D472D20
S1130CB0582D692D7B2F832D942D0E94E80E0E94C0
S1130CC06D0A8E01005C1F4FF8016083718382837B
S1130CD0938322E538EB4FE253E40E94FC0A20E0C0
S1130CE030E040E857E30E94FC0A26E636E64BE390
S1130CF052E40E94000AF801608371838283938323
S1130D00A0E0512C612C712C812C912CB0E0312C61
S1130D10412C24C0EA2FF0E07496EE0FFF1FEC0F75
S1130D20FD1FA080B1802A2D3B2D40E050E060E003
S1130D3070E080E090E0A52CB62CC72CD82CE92CD0
S1130D40FB2E032D142D0E947C0F522E632E742E25
S1130D50852E962EB72F382E492EAF5FAA30D0F2AB
S1130D600F2EFAE0AF2EF02DB12CC12CD12CE12C9A
S1130D70F12C00E010E0252D362D472D582D692D3E
S1130D807B2F832D942D0E94E80ECC5BDF4F0E94B5
S1130D906D0A688379838A839B83DF91CF911F9146
S1130DA00F91FF90EF90DF90CF90BF90AF909F9006
S1130DB08F907F906F905F904F903F900895CF9366
S1130DC0C82F8AB18F778AB98AB18F7E8AB9CA301F
S1130DD019F48DE00E94DF0683B1846083B95D9BC2
S1130DE0FECFCCB98FEA94E00197F1F700C0000080
S1130DF083B18B7F83B98AB180688AB98AB18061F3
S1130E008AB980E090E0CF91089521B32E7F21BB71
S1130E101092900029E129B926E02093950028E951
S1130E202AB926E031E03093F3032093F20380588B
S1130E309F4FFC011082789408951F920F920FB671
S1130E400F9211248F939F93EF93FF939CB1809102
S1130E506203811119C09B3711F41092B5029D37BA
S1130E6039F481E0809362038091B5028093630337
S1130E708091B502882344F0E82FF0E0EE51FD4F55
S1130E8090838F5F8093B502FF91EF919F918F9133
S1130E900F900FBE0F901F901895CF93DF93FC0116
S1130EA0E058FF4F2081222309F4BBC0EC013196A6
S1130EB0408150E068E971E00E94A711892B29F470
S1130EC081E0FE01ED57FF4F8083FE01EF57FF4F96
S1130ED0408150E060EA71E0CE010E94A711892BA5
S1130EE029F481E0FE01EC57FF4F8083FE01EF57A8
S1130EF0FF4F408150E04450510968EA71E0CE014F
S1130F000E94A711892B29F481E0FE01EB57FF4FC2
S1130F108083FE01EF57FF4F408150E04450510958
S1130F2069EB71E0CE010E94A711892B29F481E0BD
S1130F30FE01EA57FF4F8083FE01EF57FF4F4081C8
S1130F4050E0455051096AEC71E0CE010E94A711AE
S1130F50892B29F481E0FE01E957FF4F8083FE01CC
S1130F60EF57FF4F408150E0455051096BED71E060
S1130F70CE010E94A711892B29F481E0FE01E857D4
S1130F80FF4F8083FE01EF57FF4F408150E04450F4
S1130F9051096CEE71E0CE010E94A711892B29F44E
S1130FA081E0FE01E757FF4F8083FE01EF57FF4FBB
S1130FB0408150E0445051096DEF71E0CE010E9430
S1130FC0A711892B29F481E0FE01E657FF4F8083A6
S1130FD0FE01EF57FF4F408150E0445051096EE04D
S1130FE072E0CE010E94A711892B29F481E0FE0151
S1130FF0E557FF4F8083FE01EF57FF4F408150E0DC
S1131000445051096FE172E0CE010E94A711892B6F
S113101029F481E0FE01E457FF4F8083C058DF4F7D
S11310201882DF91CF910895EF92FF920F931F934F
S1131030CF93DF9300D000D01F92CDB7DEB78C01E1
S1131040F801ED57FF4F8081882369F080E392E037
S11310509F938F930E940412F801ED57FF4F108263
S11310600F900F90C1C1F801EC57FF4F8081882386
S113107069F08CE392E09F938F930E940412F8012D
S1131080EC57FF4F10820F900F90AEC1F801EB5751
S1131090FF4F8081882371F1F80122899189808929
S11310A01F922F931F929F931F928F9388E492E035
S11310B09F938F93CE0101967C019F938F930E94FF
S11310C04A12C7010E94A610ECEDF3E084839583D5
S11310D09F938F938FE492E09F938F930E940412C7
S11310E0F801EB57FF4F10820FB6F894DEBF0FBE26
S11310F0CDBF7AC1F801EA57FF4F8081882371F18F
S1131100F8012289918980891F922F931F929F93BE
S11311101F928F9388E492E09F938F93CE01019660
S11311207C019F938F930E944A12C7010E94A610CC
S1131130ECEDF3E0828393839F938F938EE592E0AB
S11311409F938F930E940412F801EA57FF4F108275
S11311500FB6F894DEBF0FBECDBF46C1F801E95704
S1131160FF4F8081882389F1F8013389228991898D
S113117080891F923F931F922F931F929F931F92D8
S11311808F9388E492E09F938F93CE0101967C0124
S11311909F938F930E944A12C7010E94A610ECED00
S11311A0F3E0808791879F938F938DE692E09F93DE
S11311B08F930E940412F801E957FF4F10820FB673
S11311C0F894DEBF0FBECDBF0FC1F801E857FF4F43
S11311D08081882389F1F801338922899189808962
S11311E01F923F931F922F931F929F931F928F934F
S11311F088E492E09F938F93CE0101967C019F93A4
S11312008F930E944A12C7010E94A610ECEDF3E0EE
S1131210868397839F938F938CE792E09F938F931A
S11312200E940412F801E857FF4F10820FB6F89499
S1131230DEBF0FBECDBFD8C0F801E757FF4F808196
S1131240882371F1F8012289918980891F922F9353
S11312501F929F931F928F9388E492E09F938F93A2
S1131260CE0101967C019F938F930E944A12C7017D
S11312700E94A610ECEDF3E0848795879F938F93EB
S11312808EE892E09F938F930E940412F801E7572F
S1131290FF4F10820FB6F894DEBF0FBECDBFA4C0BF
S11312A0F801E657FF4F8081882371F1F801228904
S11312B0918980891F922F931F929F931F928F93DE
S11312C088E492E09F938F93CE0101967C019F93D3
S11312D08F930E944A12C7010E94A610ECEDF3E01E
S11312E0828793879F938F9380EA92E09F938F9353
S11312F00E940412F801E657FF4F10820FB6F894CB
S1131300DEBF0FBECDBF70C0F801E557FF4F80812F
S1131310882371F1F8012289918980891F922F9382
S11313201F929F931F928F9388E492E09F938F93D1
S1131330CE0101967C019F938F930E944A12C701AC
S11313400E94A610ECEDF3E0808B918B9F938F931A
S11313508BE892E09F938F930E940412F801E55763
S1131360FF4F10820FB6F894DEBF0FBECDBF3CC056
S1131370F801E457FF4F8081882371F1F801228935
S1131380918980891F922F931F929F931F928F930D
S113139088E492E09F938F93CE0101967C019F9302
S11313A08F930E944A12C7010E94A610ECEDF3E04D
S11313B0868797879F938F938DE992E09F938F936E
S11313C00E940412F801E457FF4F10820FB6F894FC
S11313D0DEBF0FBECDBF08C08091B6028F5F809381
S11313E0B6028A3008F42CCE0F900F900F900F9015
S11313F00F90DF91CF911F910F91FF90EF9008957F
S11314005058BB27AA270E94180A0C94C20A0E94AB
S1131410B40A38F00E94BB0A20F039F49F3F19F453
S113142026F40C94B10A0EF4E095E7FB0C94AB0A95
S1131430E92F0E94D30A58F3BA1762077307840787
S1131440950720F079F4A6F50C94F50A0EF4E095CE
S11314500B2EBA2FA02D0B01B90190010C01CA016A
S1131460A0011124FF27591B99F0593F50F4503E15
S113147068F11A16F040A22F232F342F4427585F07
S1131480F3CF469537952795A795F0405395C9F71F
S11314907EF41F16BA0B620B730B840BBAF09150D7
S11314A0A1F0FF0FBB1F661F771F881FC2F70EC076
S11314B0BA0F621F731F841F48F487957795679549
S11314C0B795F7959E3F08F0B0CF9395880F08F035
S11314D09927EE0F979587950895E894F92F96EB41
S11314E0FF2381F0121613061406440B9395F69508
S11314F087957795679557954040FF23B9F71BC0AB
S113150099270895882351F49850D2F7872B762F82
S1131510652F542F432F322F20E0B1F312161306F8
S11315201406440B88233AF09A95440F551F661FFE
S1131530771F881FCAF755234AF4440F551F11F427
S113154060FF04C06F5F7F4F8F4F9F4F880F96954A
S1131550879597F9089597F99F6780E870E060E0B0
S113156008959FEF80EC089500240A941616170638
S113157018060906089500240A9412161306140680
S113158005060895092E0394000C11F4882352F0E3
S1131590BB0F40F4BF2B11F460FF04C06F5F7F4F9B
S11315A08F4F9F4F089557FD9058440F551F59F082
S11315B05F3F71F04795880F97FB991F61F09F3F3C
S11315C079F087950895121613061406551FF2CF65
S11315D04695F1DF08C0161617061806991FF1CFB5
S11315E086957105610508940895E894BB276627DC
S11315F07727CB0197F908950E940F0B0C94C20A28
S11316000E94B40A38F00E94BB0A20F0952311F01E
S11316100C94AB0A0C94B10A11240C94F60A0E949F
S1131620D30A70F3959FC1F3950F50E0551F629F45
S1131630F001729FBB27F00DB11D639FAA27F00D27
S1131640B11DAA1F649F6627B00DA11D661F829F4E
S11316502227B00DA11D621F739FB00DA11D621F33
S1131660839FA00D611D221F749F3327A00D611D50
S1131670231F849F600D211D822F762F6A2F112432
S11316809F5750409AF0F1F088234AF0EE0FFF1F65
S1131690BB1F661F771F881F91505040A9F79E3FBC
S11316A0510580F00C94AB0A0C94F60A5F3FE4F306
S11316B0983ED4F3869577956795B795F795E79512
S11316C09F5FC1F7FE2B880F911D9695879597F91B
S11316D00895A0E1B0E0EFE6FBE00C94450F7C0137
S11316E01B016A01FC0117821682838181FF44C3B6
S11316F09E012F5F3F4F3901F7019381F10193FD63
S1131700859193FF81911F01882309F431C38532A8
S113171039F493FD859193FF81911F01853239F44A
S1131720B70190E00E94C81156016501E5CF10E0B1
S1131730512C912CFFE1F915D8F08B3279F038F463
S1131740803279F08332A1F4F92DF0612EC08D320C
S113175061F0803369F4292D21602DC0392D326068
S1131760932E892D8460982E2AC0E92DE86015C037
S113177097FC2DC020ED280F2A3088F496FE06C071
S11317803AE0139F200D1124122F19C08AE0589EAD
S1131790200D1124522EE92DE0629E2E10C08E32AF
S11317A031F496FCE5C2F92DF0649F2E08C08C3606
S11317B021F4292D2068922E02C0883641F4F101CB
S11317C093FD859193FF81911F018111B3CF9BEB11
S11317D0980F933020F4992D9061805E07C09BE9A7
S11317E0980F933008F066C1992D9F7E96FF16E0FE
S11317F09F73992E853619F49064992E08C0863605
S113180021F4392F3068932E02C01111115097FE24
S113181007C01C3350F444244394410E27E00BC00A
S1131820183038F027E017E005C027E09CE3492E84
S113183002C0212F412C560184E0A80EB11CF601F0
S11318406081718182819381042DA3010E94C4105F
S11318506C01F981FC87F0FF02C0F3FF06C091FC24
S113186006C092FE06C000E205C00DE203C00BE212
S113187001C000E08C858C7019F001115AC29BC222
S113188097FE10C04C0CFC85F4FF04C08A818133A0
S113189009F44A94141474F528E0241578F588E0C2
S11318A0482E2CC096FC2AC0812F90E08C159D05F3
S11318B09CF03CEFC3163FEFD30674F0892D80688B
S11318C0982E0AC0E2E0F0E0EC0FFD1FE10FF11DDD
S11318D08081803319F411501111F4CF97FE0EC09A
S11318E044244394410E812F90E0C816D9062CF469
S11318F01C1904C04424439401C010E097FE06C0A0
S11319001C141D0434F4C601019605C085E090E062
S113191002C081E090E001110196112331F0212FE2
S113192030E02F5F3F4F820F931F252D30E0821749
S1131930930714F4581A01C0512C892D897049F465
S1131940552039F0B70180E290E00E94C8115A9402
S1131950F7CF002329F0B701802F90E00E94C8112F
S113196093FC09C0552039F0B70180E390E00E9450
S1131970C8115A94F7CF97FE4CC04601D7FE02C057
S1131980812C912CC60188199909F301E80FF91FDC
S1131990FE87ED87960124193109388B2F87012F93
S11319A010E01195019511093FEF8316930629F470
S11319B0B7018EE290E00E94C811C814D9044CF01B
S11319C08F8598898815990524F4ED85FE85818194
S11319D001C080E3F1E08F1A91082D853E852F5FC9
S11319E03F4F3E872D87801691062CF0B70190E07B
S11319F00E94C811D9CFC814D90441F49A819633EE
S1131A0020F4953319F43C8534FF81E3B70190E069
S1131A104EC08A81813319F09C859F7E9C87B701D3
S1131A2090E00E94C811111105C094FC18C085E60D
S1131A3090E017C0B7018EE290E00E94C8111E5FCB
S1131A4082E001E0080FF301E80FF11D8081B70186
S1131A5090E00E94C811802F0113F3CFE6CF85E4F4
S1131A6090E0B7010E94C811D7FC06C0C114D1048C
S1131A7041F4EC85E4FF05C0D194C194D1088DE212
S1131A8001C08BE2B70190E00E94C81180E32AE014
S1131A90C216D1042CF08F5FFAE0CF1AD108F7CF29
S1131AA0B70190E00E94C811B701C601C0960E9418
S1131AB0C81154C1833631F0833779F0833509F086
S1131AC056C020C0560132E0A30EB11CF60180813D
S1131AD0898301E010E0630112C05601F2E0AF0E09
S1131AE0B11CF601C080D18096FE03C0612F70E066
S1131AF002C06FEF7FEFC6010E94B5118C01F92D72
S1131B00FF7714C0560122E0A20EB11CF601C0807A
S1131B10D18096FE03C0612F70E002C06FEF7FEFAB
S1131B20C6010E949C118C01F92DF0689F2EF3FDD3
S1131B301AC0852D90E008171907A8F4B70180E2B0
S1131B4090E00E94C8115A94F4CFF60197FC859155
S1131B5097FE81916F01B70190E00E94C811511066
S1131B605A94015011090115110579F7F7C084360B
S1131B7011F0893661F5560197FE09C024E0A20EE2
S1131B80B11CF60160817181828193810AC0F2E007
S1131B90AF0EB11CF60160817181072E000C880B19
S1131BA0990BF92DFF769F2E97FF09C0909580958C
S1131BB0709561957F4F8F4F9F4FF0689F2E2AE05D
S1131BC030E0A3010E946C12C82EC6183FC0092D34
S1131BD0853721F40F7E2AE030E01DC0097F8F365F
S1131BE091F018F4883559F0C3C0803719F088375C
S1131BF011F0BEC0006104FF09C0046007C094FE78
S1131C0008C0066006C028E030E005C020E130E0EE
S1131C1002C020E132E0560107FF09C084E0A80EAB
S1131C20B11CF601608171818281938108C0F2E068
S1131C30AF0EB11CF6016081718180E090E0A301D8
S1131C400E946C12C82EC6180F77902E96FE0BC0F9
S1131C50092D0E7FC11650F494FE0AC092FC08C0F0
S1131C60092D0E7E05C0DC2C092D03C0DC2C01C01F
S1131C70D12E04FF0DC0FE01EC0DF11D80818033D7
S1131C8011F4097E09C002FF06C0D394D39404C0A2
S1131C90802F867809F0D39403FD11C000FF06C09D
S1131CA01C2DD51480F4150D1D190DC0D51458F430
S1131CB0B70180E290E00E94C811D394F7CFD51405
S1131CC010F45D1801C0512C04FF10C0B70180E36B
S1131CD090E00E94C81102FF17C001FD03C088E70D
S1131CE090E002C088E590E0B7010CC0802F8678B0
S1131CF059F001FF02C08BE201C080E207FD8DE2D2
S1131D00B70190E00E94C811C11638F4B70180E30E
S1131D1090E00E94C8111150F7CFCA94F301EC0D62
S1131D20F11D8081B70190E00E94C811C110F5CF68
S1131D3015C0F4E0F51560F584E0581A93FE1FC051
S1131D40011127C02C8523FF2AC00CE810E0392D8F
S1131D503071932EF8018491811124C0552009F427
S1131D60E4CCB70180E290E00E94C8115A94F6CF07
S1131D70F7018681978126C08FEF9FEF23C0B701BB
S1131D8080E290E00E94C8115A945110F8CFD8CF45
S1131D90512CB701802F90E00E94C811D3CF00E9E5
S1131DA010E0D5CF91108052B70190E00E94C81185
S1131DB00F5F1F4FCFCF23E0251510F483E0BDCF75
S1131DC0512CC0CF6096E2E10C94610F689401C07D
S1131DD0E8948F929F92CF93DF930E94F40EDF9149
S1131DE0CF919F908F90089588249924F401E40161
S1131DF0B0E49F93AA279A158B049C04ED05FE0575
S1131E00CF05D007A10798F4AD2FDC2FCF2FFE2FDD
S1131E10E92D982C892E982F872F762F652F542FF4
S1131E20432F322F2227B85031F7BF9127C01B2EE2
S1131E30BF91BB27220F331F441F551F661F771FF7
S1131E40881F991F881C991CEE1FFF1FCC1FDD1FC4
S1131E50AA1FBB1F8A149B04EC05FD05CE05DF05F4
S1131E60A007B10748F08A189B08EC09FD09CE09C0
S1131E70DF09A00BB10B21601A94E1F62EF4940152
S1131E80AF01BE01CD01000C08952F923F924F92F5
S1131E905F926F927F928F929F92AF92BF92CF92F6
S1131EA0DF92EF92FF920F931F93CF93DF93CDB7FF
S1131EB0DEB7CA1BDB0B0FB6F894DEBF0FBECDBF77
S1131EC009942A88398848885F846E847D848C8448
S1131ED09B84AA84B984C884DF80EE80FD800C8151
S1131EE01B81AA81B981CE0FD11D0FB6F894DEBF34
S1131EF00FBECDBFED0108952A0D3B1D4C1D5D1D88
S1131F006E1D7F1D801F911F08950F931F93CF9304
S1131F10DF938230910510F482E090E0E091EE03CB
S1131F20F091EF0320E030E0A0E0B0E0309719F149
S1131F30408151810281138148175907C8F08417E1
S1131F40950769F4109731F012960C931297139633
S1131F501C9327C00093EE031093EF0322C02115B6
S1131F60310519F04217530718F49A01BD01EF0126
S1131F70DF01F801DBCF21153105F9F0281B390BFE
S1131F802430310580F48A819B816115710521F02B
S1131F90FB019383828304C09093EF038093EE0349
S1131FA0FE01329644C0FE01E20FF31F8193919328
S1131FB022503109398328833AC02091EC033091AF
S1131FC0ED03232B41F4209102013091030130935E
S1131FD0ED032093EC0320910001309101012115C0
S1131FE0310541F42DB73EB74091040150910501EC
S1131FF0241B350BE091EC03F091ED03E217F3079A
S1132000A0F42E1B3F0B2817390778F0AC014E5F64
S11320105F4F2417350748F04E0F5F1F5093ED03B1
S11320204093EC038193919302C0E0E0F0E0CF0190
S1132030DF91CF911F910F910895CF93DF93009774
S113204009F481C0FC01329713821282A091EE033D
S1132050B091EF03109781F420813181820F931F97
S11320602091EC033091ED032817390751F5F093D3
S1132070ED03E093EC0367C0ED0120E030E0CE1700
S1132080DF0740F44A815B819E0141155105F1F05F
S1132090EA01F5CFD383C28340815181840F951F18
S11320A0C817D90759F488819981840F951F02961E
S11320B0918380838A819B81938382832115310557
S11320C029F4F093EF03E093EE033DC0E901FB83B1
S11320D0EA8349915991C40FD51FEC17FD0761F4A8
S11320E080819181840F951F0296E90199838883E9
S11320F0828193819B838A83E0E0F0E012968D9144
S11321009C911397009719F0FD01DC01F7CF8D9195
S11321109C9111979D012E5F3F4F820F931F209139
S1132120EC033091ED032817390769F4309729F44B
S11321301092EF031092EE0302C013821282B09346
S1132140ED03A093EC03DF91CF910895FC01882760
S11321509927E89421912032E9F3293010F02E30A8
S1132160C8F32B3241F02D3239F4689404C00E9434
S1132170C011820F911D219120532A30C0F31EF407
S1132180909581959F4F0895283008F027E03327D4
S1132190DA01990F311D87FD916000966105710583
S11321A039F432602E5F3D9330E32A95E1F70895C8
S11321B09F3F30F080387105610509F03C5F3C5F5A
S11321C03D93913008F08068911DDF93CF931F9366
S11321D00F93FF92EF92192F987F9695E92F96957A
S11321E09695E90FFF27E251FF4F99273327EE24F5
S11321F0FF24A701E70105900894079428F4360FFB
S1132200E71EF81E491F511D660F771F881F991F6F
S11322100694A1F70590079428F4E70EF81E491FC9
S1132220561FC11D770F881F991F661F0694A1F7BB
S11322300590079428F4F80E491F561FC71FD11D97
S1132240880F991F661F771F0694A1F705900794BE
S113225020F4490F561FC71FD81F990F661F771FF9
S1132260881F0694A9F784911095177041F0D695AC
S1132270C79557954795F794E7941A95C1F7E4E9FC
S1132280F0E06894159015913591659195910590BC
S11322907FE27395E118F10A430B560BC90BD00981
S11322A0C0F7E10CF11E431F561FC91FD01D7EF459
S11322B0703311F48A95E6CFE894015030F0080F9A
S11322C00AF40027021708F4202F2395022F7A33EB
S11322D028F079E37D932A95E9F710C07D932A9538
S11322E089F6069497956795379517951794E1188D
S11322F0F10A430B560BC90BD00998F023957E9134
S113230073957A3308F070E37C932013B8F77E91C9
S113231070617D9330F0839571E37D9370E32A952A
S1132320E1F71124EF90FF900F911F91CF91DF916E
S1132330992787FD90950895FC01059061507040A0
S11323400110D8F7809590958E0F9F1F0895FB017B
S1132350DC014150504030F08D910190801919F406
S11323600020B9F7881B990B0895FC016150704057
S113237001900110D8F7809590958E0F9F1F0895B6
S11323807AE0979F902D879F802D910D11240895B9
S11323900F931F93CF93DF93FB01238121FD03C090
S11323A08FEF9FEF2CC022FF16C0468157812481F6
S11323B035814217530744F4A081B1819D012F5FF9
S11323C03F4F318320838C93268137812F5F3F4F8A
S11323D03783268314C08B01EC01FB010084F18553
S11323E0E02D0995892BE1F6D80116968D919C91E3
S11323F01797019617969C938E931697CE01DF91AB
S1132400CF911F910F910895A0E0B0E0EAE0F2E1CE
S11324100C94550FAE014B5F5F4FFA0161917191BE
S1132420AF018091F2039091F3030E94690BE2E003
S11324300C94710F0F931F93CF93DF93E091F203EA
S1132440F091F303238121FF1BC08C01D0E0C0E095
S1132450F80181918F016091F2037091F303DB0124
S11324601896ED91FC911997882331F00995892BE1
S113247079F3DFEFCFEFECCF8AE00995892B19F0E0
S11324808FEF9FEF02C08D2F9C2FDF91CF911F9173
S11324900F910895AEE0B0E0E0E5F2E10C94530F43
S11324A00D891E8986E08C831A8309838FEF9FE749
S11324B09E838D83AE01475E5F4F6F89788DCE0119
S11324C001960E94690BEF81F885E00FF11F1082DD
S11324D02E96E4E00C946F0FFA01AA27283051F1EC
S11324E0203181F1E8946F936E7F6E5F7F4F8F4F41
S11324F09F4FAF4FB1E03ED0B4E03CD0670F781FA0
S1132500891F9A1FA11D680F791F8A1F911DA11D84
S11325106A0F711D811D911DA11D20D009F46894BD
S11325203F912AE0269F11243019305D3193DEF665
S1132530CF010895462F4770405D4193B3E00FD01B
S1132540C9F7F6CF462F4F70405D4A3318F0495D06
S113255031FD4052419302D0A9F7EACFB4E0A695E9
S11325609795879577956795BA95C9F7009761050B
S1132570710508959B01AC010A2E06945795479561
S113258037952795BA95C9F7620F731F841F951F56
S10B2590A01D0895F894FFCF8B
S11325980000F60320000000000200000000DF062F
S11325A800000000414443205A65696C65204E557B
S11325B84C4C2000414443205370616C74653A20AC
S11325C82564204E554C4C200A001B630053424995
S11325D84F2056302E3320005374726F6D3A2025E5
S11325E866200A005370616E6E756E673A20256620
S11325F8200A00474E4448554D493A202566200A8A
S11326080048554D493A2025332E3166200A005496
S1132618454D503A2025332E3166200A004C554D3D
S1132628493A202564200A007B5441534B317D00EC
S11326387B5441534B327D007B5345542054454DC4
S1132648505F4C20544F3A7D007B534554205445E9
S11326584D505F4820544F3A7D007B534554204CDD
S1132668554D495F4C20544F3A7D007B53455420C7
S11326784C554D495F4820544F3A7D007B5345548F
S11326882048554D495F4C20544F3A7D007B5345B3
S1132698542048554D495F4820544F3A7D007B5398
S11326A84554204748554D5F4C20544F3A7D007B94
S11326B8534554204748554D5F4820544F3A7D00B0
S11326C848616C6C6F205441534B310048616C6C09
S11326D86F205441534B320025632563256300540E
S11326E8454D505F4C3A2025642043200A00544548
S11326F84D505F483A2025642043200A004C554D2C
S1132708495F4C3A2025642043200A004C554D4922
S11327185F483A2025642043200A00474E44485520
S11327284D495F4C3A2025642043200A00474E4413
S113273848554D495F483A2025642043200A000043
S9030000FC
