:100000000C94C7000C94E4000C94E4000C94E400FD
:100010000C94E4000C94E4000C94E4000C94E400D0
:100020000C94E4000C94E4000C94E4000C94E400C0
:100030000C94E4000C94E4000C94E4000C94E400B0
:100040000C94E4000C94E4000C945C030C94E40025
:100050000C94E4000C94E4000C94E4000C94E40090
:100060000C94E4000C94E4000C94E4000C94E40080
:100070000C94E4000C94E4000C94E4000C94E40070
:100080000C94E4000C94E4000C94E4006E616E00A7
:10009000696E660000407A10F35A00A0724E18098B
:1000A0000010A5D4E80000E87648170000E40B54DF
:1000B000020000CA9A3B000000E1F50500008096AE
:1000C0009800000040420F000000A08601000000E0
:1000D000102700000000E80300000000640000009A
:1000E00000000A00000000000100000000002C7663
:1000F000D888DC674F0823DFC1DFAE59E1B1B7967E
:10010000E5E3E453C63AE651997696E8E6C28426DA
:10011000EB898C9B62ED407C6FFCEFBC9C9F40F2B6
:10012000BAA56FA5F490055A2AF75C936B6CF96732
:100130006DC11BFCE0E40D47FEF520E6B500D0EDF7
:10014000902E0300943577050080841E080000205F
:100150004E0A000000C80C333333330F986E1283FD
:100160001141EF8D2114893BE65516CFFEE6DB18D1
:10017000D1844B381BF77C1D901DA4BBE424203296
:1001800084725E228100C9F124ECA1E53D2711248F
:100190001FBECFEFD0E1DEBFCDBF11E0A0E0B1E0E8
:1001A000ECEEF8E102C005900D92A636B107D9F742
:1001B00022E0A6E6B1E001C01D92A935B207E1F741
:1001C0000E94C0020C94740C0C940000EF92FF92F9
:1001D0000F931F93CF938C0181E0F801808381837B
:1001E00082838383148215821682178280E190E0D5
:1001F0000E947709F80191878087892B21F484E197
:1002000091E00E94E60BC0E028C0F801EC0FF11D60
:100210008081882381F0F80180859185EC2EF12C76
:10022000EE0CFF1CE80EF91E84E190E00E947709B5
:10023000F70191838083F80180859185EC2FF0E0B0
:10024000EE0FFF1FE80FF91F80819181892B21F4A8
:1002500084E291E00E94E60BCF5FCA30B0F280E406
:1002600087B984EC86B9CF911F910F91FF90EF90E1
:100270000895DC0190E02DC0FD01E90FF11D8081A2
:10028000882331F187B1807F292F2F70822B87B986
:1002900026B1206426B93699FECF18962D913C914F
:1002A0001997E92FF0E0EE0FFF1FE20FF31F4081D7
:1002B000518120916601E22FF0E0EE0FFF1FE40F65
:1002C000F51F24B135B13183208327B1207F27B9B1
:1002D0009F5F983088F2809166018A3018F48F5FB2
:1002E00080936601809166018A3011F41092660154
:1002F00008952F923F924F925F926F927F928F92CA
:100300009F92AF92BF92CF92DF92EF92FF920F93A4
:100310001F93CF93DF9300D000D000D0CDB7DEB7CE
:100320009C838B83612C7BC0862D90E09A8389838C
:10033000FC018B819C81E80FF91F808181113CC0F9
:10034000512C712CB0E0A0E01D821E82212C312C9A
:100350003FC0EB81FC8120853185862D90E0880FA0
:10036000991F820F931FFC0120813181842D90E021
:10037000880F991F820F931FFC01A080B180450157
:10038000282D392D40E050E060E070E080E090E002
:10039000A52CB72CCB2EDA2EED80FE80022D132D4E
:1003A0000E946E09522E732EB42FA52F6D837E836B
:1003B000282E392E439409C0412C512C712CB0E0C9
:1003C000A0E01D821E82212C312CF9E0F41508F6E4
:1003D0000F2EFAE0AF2EF02DB12CC12CD12CE12C38
:1003E000F12C00E010E0252D372D4B2F5A2F6D8179
:1003F0007E81822D932D0E94DA0889809A80880C54
:10040000991C880C991CEB81FC818E0E9F1E0E940A
:100410005F04F40163877487858796876394F7E0A8
:10042000F61508F081CF26960FB6F894DEBF0FBE02
:10043000CDBFDF91CF911F910F91FF90EF90DF9093
:10044000CF90BF90AF909F908F907F906F905F9074
:100450004F903F902F900895AC0188B38F7E88BB5A
:1004600090E017C0FA01E90FF11D2081222321F04D
:1004700028B3206228BB03C028B32F7D28BB28B334
:10048000206428BB28B32F7B28BB28B32F7D28BB33
:100490009F5F903138F388B3806188BB0895860FE1
:1004A000911DFC01408308958AB388608ABB8AB39A
:1004B00080618ABB8AB380628ABB8AB380648ABB4C
:1004C00087B3846087BB82B1846082B984B380645F
:1004D00084BB84B3806284BB84B3806184BB8AB3F1
:1004E00080688ABBE4E6F0E080818460808384B326
:1004F000806884BB87B3806187BB87B3806287BB1A
:1005000087B3806487BB81B3806481BB81B380681B
:1005100081BB80818160808380818260808384B39D
:10052000816084BB84B3826084BB84B3846084BBF9
:1005300084B3886084BB8AB381608ABB8AB38260DB
:100540008ABB87B3816087BB87B3826087BB82B178
:10055000806882B987B3886087BB8BB381608BBBAF
:100560008BB382608BBB88B3816088BB88B38260A9
:1005700088BB83B1806883B988B3886088BB0895DD
:1005800081E392E00E94540284E991E00E944703D3
:1005900089E691E00E94E60085E391E09F938F93C6
:1005A0000E94D00B60918001709181018091820145
:1005B0009091830129E23CE54FE05DE30E94EE0467
:1005C00020E030E040E652E40E94ED039F938F93D9
:1005D0007F936F9388E391E09F938F930E94D00B5A
:1005E0002FEF83ED90E3215080409040E1F700C071
:1005F00000008DB79EB708960FB6F8949EBF0FBE49
:100600008DBFC0E007C041E06C2F81E292E00E9404
:100610004F02CF5FC031B8F381E292E00E942C021A
:1006200089E691E00E94390189E691E00E94790112
:1006300084E991E00E948C0384E991E00E94BA036E
:10064000ABCFCF93C82F8AB18F778AB98AB18F7E0B
:100650008AB9CA3019F48DE00E94210383B1846005
:1006600083B95D9BFECFCCB98FE599E00197F1F797
:1006700000C0000083B18B7F83B98AB180688AB9DA
:100680008AB180618AB980E090E0CF91089510929C
:10069000900023E329B926E02093950028E92AB9A0
:1006A00026E031E0309356022093550280589F4F48
:1006B000FC011082789408951F920F920FB60F924A
:1006C00011248F939F93EF93FF93809114028111D4
:1006D0001AC09CB19B3711F4109267019D3739F411
:1006E00081E08093140280916701809315028091CC
:1006F0006701882344F0E82FF0E0EC56FE4F90832A
:100700008F5F80936701FF91EF919F918F910F9081
:100710000FBE0F901F901895CF93DF93FC01E05808
:10072000FF4F2081222319F1EC013196408150E0E6
:1007300068E471E00E947B0B892B29F481E0FE01C3
:10074000ED57FF4F8083FE01EF57FF4F408150E090
:1007500060E571E0CE010E947B0B892B29F481E0DA
:10076000FE01EC57FF4F8083C058DF4F1882DF91A6
:10077000CF910895CF93DF93EC017894FE01ED576C
:10078000FF4F8081882361F088E591E09F938F93EC
:100790000E94D00BCD57DF4F18820F900F9019C0D9
:1007A000FE01EC57FF4F8081882361F08FE591E0D7
:1007B0009F938F930E94D00BCC57DF4F18820F90DE
:1007C0000F9007C0809168018F5F809368018A3025
:1007D000A8F2F894DF91CF9108950E9401040C943F
:1007E000B4040E94AD0458F00E94A60440F029F41D
:1007F0005F3F29F00C949D0451110C94E8040C9473
:10080000A3040E94C50468F39923B1F3552391F31F
:10081000951B550BBB27AA2762177307840738F06F
:100820009F5F5F4F220F331F441FAA1FA9F335D0CC
:100830000E2E3AF0E0E832D091505040E695001C80
:10084000CAF72BD0FE2F29D0660F771F881FBB1F3A
:10085000261737074807AB07B0E809F0BB0B802D18
:10086000BF01FF2793585F4F3AF09E3F510578F044
:100870000C949D040C94E8045F3FE4F3983ED4F399
:10088000869577956795B795F7959F5FC9F7880F18
:10089000911D9695879597F90895E1E0660F771F6A
:1008A000881FBB1F621773078407BA0720F0621BFB
:1008B000730B840BBA0BEE1F88F7E0950895E8944C
:1008C000F92F96EBFF2381F0121613061406440B42
:1008D0009395F69587957795679557954040FF23B3
:1008E000B9F71BC099270895882351F49850D2F77F
:1008F000872B762F652F542F432F322F20E0B1F313
:10090000121613061406440B88233AF09A95440FE6
:10091000551F661F771F881FCAF755234AF4440FD7
:10092000551F11F460FF04C06F5F7F4F8F4F9F4FC3
:10093000880F9695879597F9089597F99F6780E8AE
:1009400070E060E008959FEF80EC089500240A9421
:100950001616170618060906089500240A9412169A
:100960001306140605060895092E0394000C11F4CD
:10097000882352F0BB0F40F4BF2B11F460FF04C07A
:100980006F5F7F4F8F4F9F4F089557FD9058440FD3
:10099000551F59F05F3F71F04795880F97FB991FDE
:1009A00061F09F3F79F0879508951216130614069B
:1009B000551FF2CF4695F1DF08C016161706180628
:1009C000991FF1CF86957105610508940895E89403
:1009D000BB2766277727CB0197F908950E94010569
:1009E0000C94B4040E94A60438F00E94AD0420F0D8
:1009F000952311F00C949D040C94A30411240C94E1
:100A0000E8040E94C50470F3959FC1F3950F50E070
:100A1000551F629FF001729FBB27F00DB11D639FB0
:100A2000AA27F00DB11DAA1F649F6627B00DA11D56
:100A3000661F829F2227B00DA11D621F739FB00DFC
:100A4000A11D621F839FA00D611D221F749F33276C
:100A5000A00D611D231F849F600D211D822F762F05
:100A60006A2F11249F5750409AF0F1F088234AF0E2
:100A7000EE0FFF1FBB1F661F771F881F915050404E
:100A8000A9F79E3F510580F00C949D040C94E80456
:100A90005F3FE4F3983ED4F3869577956795B795D5
:100AA000F795E7959F5FC1F7FE2B880F911D9695EF
:100AB000879597F90895A0E1B0E0E1E6F5E00C94A0
:100AC00037097C011B016A01FC01178216828381B0
:100AD00081FF44C39E012F5F3F4F3901F70193818E
:100AE000F10193FD859193FF81911F01882309F402
:100AF00031C3853239F493FD859193FF81911F01B4
:100B0000853239F4B70190E00E94940B56016501DB
:100B1000E5CF10E0512C912CFFE1F915D8F08B3284
:100B200079F038F4803279F08332A1F4F92DF06154
:100B30002EC08D3261F0803369F4292D21602DC0E3
:100B4000392D3260932E892D8460982E2AC0E92D8C
:100B5000E86015C097FC2DC020ED280F2A3088F4DE
:100B600096FE06C03AE0139F200D1124122F19C0E3
:100B70008AE0589E200D1124522EE92DE0629E2E0F
:100B800010C08E3231F496FCE5C2F92DF0649F2E30
:100B900008C08C3621F4292D2068922E02C0883698
:100BA00041F4F10193FD859193FF81911F01811122
:100BB000B3CF9BEB980F933020F4992D9061805E1A
:100BC00007C09BE9980F933008F066C1992D9F7E6E
:100BD00096FF16E09F73992E853619F49064992E2E
:100BE00008C0863621F4392F3068932E02C01111C7
:100BF000115097FE07C01C3350F444244394410E17
:100C000027E00BC0183038F027E017E005C027E0D8
:100C10009CE3492E02C0212F412C560184E0A80EEE
:100C2000B11CF6016081718182819381042DA30141
:100C30000E94980A6C01F981FC87F0FF02C0F3FF63
:100C400006C091FC06C092FE06C000E205C00DE29F
:100C500003C00BE201C000E08C858C7019F001111B
:100C60005AC29BC297FE10C04C0CFC85F4FF04C016
:100C70008A81813309F44A94141474F528E0241508
:100C800078F588E0482E2CC096FC2AC0812F90E091
:100C90008C159D059CF03CEFC3163FEFD30674F016
:100CA000892D8068982E0AC0E2E0F0E0EC0FFD1F6D
:100CB000E10FF11D8081803319F411501111F4CF2F
:100CC00097FE0EC044244394410E812F90E0C81635
:100CD000D9062CF41C1904C04424439401C010E02C
:100CE00097FE06C01C141D0434F4C601019605C00D
:100CF00085E090E002C081E090E0011101961123AF
:100D000031F0212F30E02F5F3F4F820F931F252DB1
:100D100030E08217930714F4581A01C0512C892D22
:100D2000897049F4552039F0B70180E290E00E94C3
:100D3000940B5A94F7CF002329F0B701802F90E04D
:100D40000E94940B93FC09C0552039F0B70180E351
:100D500090E00E94940B5A94F7CF97FE4CC0460146
:100D6000D7FE02C0812C912CC60188199909F30184
:100D7000E80FF91FFE87ED87960124193109388B9A
:100D80002F87012F10E01195019511093FEF831670
:100D9000930629F4B7018EE290E00E94940BC814E8
:100DA000D9044CF08F8598898815990524F4ED8530
:100DB000FE85818101C080E3F1E08F1A91082D85C5
:100DC0003E852F5F3F4F3E872D87801691062CF082
:100DD000B70190E00E94940BD9CFC814D90441F414
:100DE0009A81963320F4953319F43C8534FF81E3DE
:100DF000B70190E04EC08A81813319F09C859F7EB7
:100E00009C87B70190E00E94940B111105C094FCDF
:100E100018C085E690E017C0B7018EE290E00E940E
:100E2000940B1E5F82E001E0080FF301E80FF11D53
:100E30008081B70190E00E94940B802F0113F3CFC3
:100E4000E6CF85E490E0B7010E94940BD7FC06C082
:100E5000C114D10441F4EC85E4FF05C0D194C194E0
:100E6000D1088DE201C08BE2B70190E00E94940BA3
:100E700080E32AE0C216D1042CF08F5FFAE0CF1A8B
:100E8000D108F7CFB70190E00E94940BB701C601DB
:100E9000C0960E94940B54C1833631F0833779F0A9
:100EA000833509F056C020C0560132E0A30EB11CB4
:100EB000F6018081898301E010E0630112C05601D0
:100EC000F2E0AF0EB11CF601C080D18096FE03C0E7
:100ED000612F70E002C06FEF7FEFC6010E94890BA7
:100EE0008C01F92DFF7714C0560122E0A20EB11C2F
:100EF000F601C080D18096FE03C0612F70E002C071
:100F00006FEF7FEFC6010E94700B8C01F92DF06826
:100F10009F2EF3FD1AC0852D90E008171907A8F43D
:100F2000B70180E290E00E94940B5A94F4CFF6014E
:100F300097FC859197FE81916F01B70190E00E9427
:100F4000940B51105A94015011090115110579F7AC
:100F5000F7C0843611F0893661F5560197FE09C055
:100F600024E0A20EB11CF60160817181828193811F
:100F70000AC0F2E0AF0EB11CF60160817181072E4C
:100F8000000C880B990BF92DFF769F2E97FF09C057
:100F900090958095709561957F4F8F4F9F4FF0682A
:100FA0009F2E2AE030E0A3010E94160CC82EC6181E
:100FB0003FC0092D853721F40F7E2AE030E01DC0A7
:100FC000097F8F3691F018F4883559F0C3C0803707
:100FD00019F0883711F0BEC0006104FF09C0046039
:100FE00007C094FE08C0066006C028E030E005C0D7
:100FF00020E130E002C020E132E0560107FF09C0E5
:1010000084E0A80EB11CF601608171818281938118
:1010100008C0F2E0AF0EB11CF6016081718180E082
:1010200090E0A3010E94160CC82EC6180F77902ED0
:1010300096FE0BC0092D0E7FC11650F494FE0AC017
:1010400092FC08C0092D0E7E05C0DC2C092D03C0C2
:10105000DC2C01C0D12E04FF0DC0FE01EC0DF11DF2
:101060008081803311F4097E09C002FF06C0D39449
:10107000D39404C0802F867809F0D39403FD11C067
:1010800000FF06C01C2DD51480F4150D1D190DC0D0
:10109000D51458F4B70180E290E00E94940BD394E9
:1010A000F7CFD51410F45D1801C0512C04FF10C007
:1010B000B70180E390E00E94940B02FF17C001FD8E
:1010C00003C088E790E002C088E590E0B7010CC05B
:1010D000802F867859F001FF02C08BE201C080E2C8
:1010E00007FD8DE2B70190E00E94940BC11638F421
:1010F000B70180E390E00E94940B1150F7CFCA949F
:10110000F301EC0DF11D8081B70190E00E94940B7A
:10111000C110F5CF15C0F4E0F51560F584E0581A5C
:1011200093FE1FC0011127C02C8523FF2AC00CE8A5
:1011300010E0392D3071932EF8018491811124C073
:10114000552009F4E4CCB70180E290E00E94940BB2
:101150005A94F6CFF7018681978126C08FEF9FEFD3
:1011600023C0B70180E290E00E94940B5A94511082
:10117000F8CFD8CF512CB701802F90E00E94940B6C
:10118000D3CF00E910E0D5CF91108052B70190E0A5
:101190000E94940B0F5F1F4FCFCF23E0251510F453
:1011A00083E0BDCF512CC0CF6096E2E10C9453098F
:1011B000689401C0E8948F929F92CF93DF930E942E
:1011C000E608DF91CF919F908F900895882499240D
:1011D000F401E401B0E49F93AA279A158B049C04C0
:1011E000ED05FE05CF05D007A10798F4AD2FDC2F44
:1011F000CF2FFE2FE92D982C892E982F872F762F11
:10120000652F542F432F322F2227B85031F7BF912B
:1012100027C01B2EBF91BB27220F331F441F551F12
:10122000661F771F881F991F881C991CEE1FFF1FC0
:10123000CC1FDD1FAA1FBB1F8A149B04EC05FD05F4
:10124000CE05DF05A007B10748F08A189B08EC0916
:10125000FD09CE09DF09A00BB10B21601A94E1F65C
:101260002EF49401AF01BE01CD01000C08952F9220
:101270003F924F925F926F927F928F929F92AF9226
:10128000BF92CF92DF92EF92FF920F931F93CF9373
:10129000DF93CDB7DEB7CA1BDB0B0FB6F894DEBF0A
:1012A0000FBECDBF09942A88398848885F846E8430
:1012B0007D848C849B84AA84B984C884DF80EE807A
:1012C000FD800C811B81AA81B981CE0FD11D0FB683
:1012D000F894DEBF0FBECDBFED0108952A0D3B1D72
:1012E0004C1D5D1D6E1D7F1D801F911F08950F9366
:1012F0001F93CF93DF938230910510F482E090E04A
:10130000E0915102F091520220E030E0A0E0B0E024
:10131000309719F140815181028113814817590793
:10132000C8F08417950769F4109731F012960C9362
:10133000129713961C9327C00093510210935202E8
:1013400022C02115310519F04217530718F49A01EC
:10135000BD01EF01DF01F801DBCF21153105F9F007
:10136000281B390B2430310580F48A819B8161155B
:10137000710521F0FB019383828304C09093520294
:1013800080935102FE01329644C0FE01E20FF31F2A
:101390008193919322503109398328833AC0209157
:1013A0004F0230915002232B41F4209102013091E1
:1013B00003013093500220934F022091000130919D
:1013C00001012115310541F42DB73EB740910401CB
:1013D00050910501241B350BE0914F02F091500212
:1013E000E217F307A0F42E1B3F0B2817390778F0FC
:1013F000AC014E5F5F4F2417350748F04E0F5F1F5B
:101400005093500240934F028193919302C0E0E0C9
:10141000F0E0CF01DF91CF911F910F910895CF930D
:10142000DF93009709F481C0FC0132971382128286
:10143000A0915102B0915202109781F42081318124
:10144000820F931F20914F023091500228173907C5
:1014500051F5F0935002E0934F0267C0ED0120E098
:1014600030E0CE17DF0740F44A815B819E014115D1
:101470005105F1F0EA01F5CFD383C2834081518158
:10148000840F951FC817D90759F488819981840F53
:10149000951F0296918380838A819B8193838283A7
:1014A0002115310529F4F0935202E09351023DC019
:1014B000E901FB83EA8349915991C40FD51FEC17C9
:1014C000FD0761F480819181840F951F0296E901E7
:1014D00099838883828193819B838A83E0E0F0E013
:1014E00012968D919C911397009719F0FD01DC01E4
:1014F000F7CF8D919C9111979D012E5F3F4F820FE9
:10150000931F20914F02309150022817390769F438
:10151000309729F4109252021092510202C01382A5
:101520001282B0935002A0934F02DF91CF910895A1
:10153000283008F027E03327DA01990F311D87FDA5
:10154000916000966105710539F432602E5F3D931C
:1015500030E32A95E1F708959F3F30F08038710518
:10156000610509F03C5F3C5F3D93913008F0806875
:10157000911DDF93CF931F930F93FF92EF92192F3B
:10158000987F9695E92F96959695E90FFF27E2515A
:10159000FF4F99273327EE24FF24A701E701059089
:1015A0000894079428F4360FE71EF81E491F511DB2
:1015B000660F771F881F991F0694A1F7059007945F
:1015C00028F4E70EF81E491F561FC11D770F881F0C
:1015D000991F661F0694A1F70590079428F4F80E4A
:1015E000491F561FC71FD11D880F991F661F771FE0
:1015F0000694A1F70590079420F4490F561FC71FC2
:10160000D81F990F661F771F881F0694A9F784912A
:101610001095177041F0D695C79557954795F79453
:10162000E7941A95C1F7E4E9F0E0689415901591F4
:1016300035916591959105907FE27395E118F10AD6
:10164000430B560BC90BD009C0F7E10CF11E431F29
:10165000561FC91FD01D7EF4703311F48A95E6CF52
:10166000E894015030F0080F0AF40027021708F43C
:10167000202F2395022F7A3328F079E37D932A9542
:10168000E9F710C07D932A9589F60694979567959A
:10169000379517951794E118F10A430B560BC90BB0
:1016A000D00998F023957E9173957A3308F070E312
:1016B0007C932013B8F77E9170617D9330F0839511
:1016C00071E37D9370E32A95E1F71124EF90FF9089
:1016D0000F911F91CF91DF91992787FD90950895E4
:1016E000FC010590615070400110D8F780959095ED
:1016F0008E0F9F1F0895FB01DC014150504030F0D8
:101700008D910190801919F40020B9F7881B990B6D
:101710000895FC016150704001900110D8F7809548
:1017200090958E0F9F1F08950F931F93CF93DF9374
:10173000FB01238121FD03C08FEF9FEF2CC022FF0F
:1017400016C046815781248135814217530744F4DE
:10175000A081B1819D012F5F3F4F318320838C9306
:10176000268137812F5F3F4F3783268314C08B013B
:10177000EC01FB010084F185E02D0995892BE1F650
:10178000D80116968D919C911797019617969C9368
:101790008E931697CE01DF91CF911F910F910895EF
:1017A000A0E0B0E0E6EDFBE00C944709AE014B5F32
:1017B0005F4FFA0161917191AF0180915502909153
:1017C00056020E945B05E2E00C9463090F931F939D
:1017D000CF93DF93E0915502F0915602238121FFD0
:1017E0001BC08C01D0E0C0E0F80181918F016091B5
:1017F000550270915602DB011896ED91FC911997F4
:10180000882331F00995892B79F3DFEFCFEFECCF07
:101810008AE00995892B19F08FEF9FEF02C08D2F79
:101820009C2FDF91CF911F910F910895FA01AA2764
:10183000283051F1203181F1E8946F936E7F6E5F13
:101840007F4F8F4F9F4FAF4FB1E03ED0B4E03CD0C1
:10185000670F781F891F9A1FA11D680F791F8A1FA4
:10186000911DA11D6A0F711D811D911DA11D20D00B
:1018700009F468943F912AE0269F11243019305DC5
:101880003193DEF6CF010895462F4770405D4193B6
:10189000B3E00FD0C9F7F6CF462F4F70405D4A3303
:1018A00018F0495D31FD4052419302D0A9F7EACFCB
:1018B000B4E0A6959795879577956795BA95C9F7FA
:1018C00000976105710508959B01AC010A2E0694ED
:1018D0005795479537952795BA95C9F7620F731FA6
:0C18E000841F951FA01D0895F894FFCFF1
:1018EC00000059022000000000020000000021034B
:1018FC0000000000414443205A65696C65204E5538
:10190C004C4C2000414443205370616C7465204E54
:10191C00554C4C20001B63004144433A2025312E8A
:10192C0034662041200D0A007B5441534B317D001D
:10193C007B5441534B327D0048616C6C6F310048D5
:06194C00616C6C6F3200BB
:00000001FF
