S00D00005342494F332E73726563B7
S11300000C94C7000C94E4000C94E4000C94E400F9
S11300100C94E4000C94E4000C94E4000C94E400CC
S11300200C94E4000C94E4000C94E4000C94E400BC
S11300300C94E4000C94E4000C94E4000C94E400AC
S11300400C94E4000C94E4000C945E090C94E40019
S11300500C94E4000C94E4000C94E4000C94E4008C
S11300600C94E4000C94E4000C94E4000C94E4007C
S11300700C94E4000C94E4000C94E4000C94E4006C
S11300800C94E4000C94E4000C94E4006E616E00A3
S1130090696E660000407A10F35A00A0724E180987
S11300A00010A5D4E80000E87648170000E40B54DB
S11300B0020000CA9A3B000000E1F50500008096AA
S11300C09800000040420F000000A08601000000DC
S11300D0102700000000E803000000006400000096
S11300E000000A00000000000100000000002C765F
S11300F0D888DC674F0823DFC1DFAE59E1B1B7967A
S1130100E5E3E453C63AE651997696E8E6C28426D6
S1130110EB898C9B62ED407C6FFCEFBC9C9F40F2B2
S1130120BAA56FA5F490055A2AF75C936B6CF9672E
S11301306DC11BFCE0E40D47FEF520E6B500D0EDF3
S1130140902E0300943577050080841E080000205B
S11301504E0A000000C80C333333330F986E1283F9
S11301601141EF8D2114893BE65516CFFEE6DB18CD
S1130170D1844B381BF77C1D901DA4BBE424203292
S113018084725E228100C9F124ECA1E53D2711248B
S11301901FBECFEFD0E1DEBFCDBF14E0A0E0B1E0E1
S11301A0E8E3FEE202C005900D92AA37B107D9F741
S11301B026E0AAE7B4E001C01D92A539B207E1F731
S11301C00E94BF040C941A170C940000CF92DF9283
S11301D0EF92FF920F931F93CF938C0181E0F8016C
S11301E0808381838283838314821582168217829B
S11301F080E190E00E947313F80191878087892B36
S113020021F484E191E00E944216C0E031C0EC2E5A
S1130210F12CF801EE0DFF1D8081882379F0F8019F
S1130220808591856701CC0CDD1CC80ED91E84E144
S113023090E00E947313F60191838083F801808516
S11302409185EC2FF0E0EE0FFF1FE80FF91F80817E
S11302509181892B61F4FF92EF9284E291E09F9364
S11302608F930E9425160F900F900F900F90CF5FE1
S1130270CA3068F280E487B984EC86B9CF911F91C3
S11302800F91FF90EF90DF90CF900895DC0190E004
S11302902DC0FD01E90FF11D8081882331F187B163
S11302A0807F292F2F70822B87B926B1206426B92D
S11302B03699FECF18962D913C911997E92FF0E0CD
S11302C0EE0FFF1FE20FF31F4081518120917C0448
S11302D0E22FF0E0EE0FFF1FE40FF51F24B135B15C
S11302E03183208327B1207F27B99F5F983088F21C
S11302F080917C048A3018F48F5F80937C04809111
S11303007C048A3011F410927C0408952F923F9259
S11303104F925F926F927F928F929F92AF92BF9211
S1130320CF92DF92EF92FF920F931F93CF93DF93BD
S113033000D000D000D0CDB7DEB79C838B83612C76
S11303407BC0862D90E09A838983FC018B819C81FC
S1130350E80FF91F808181113CC0512C712CB0E051
S1130360A0E01D821E82212C312C3FC0EB81FC8138
S113037020853185862D90E0880F991F820F931F69
S1130380FC0120813181842D90E0880F991F820F18
S1130390931FFC01A080B1804501282D392D40E038
S11303A050E060E070E080E090E0A52CB72CCB2E0C
S11303B0DA2EED80FE80022D132D0E946A13522E38
S11303C0732EB42FA52F6D837E83282E392E43944C
S11303D009C0412C512C712CB0E0A0E01D821E827A
S11303E0212C312CF9E0F41508F60F2EFAE0AF2E8B
S11303F0F02DB12CC12CD12CE12CF12C00E010E01B
S1130400252D372D4B2F5A2F6D817E81822D932DD3
S11304100E94D61289809A80880C991C880C991C99
S1130420EB81FC818E0E9F1E0E945B0EF40163879C
S11304307487858796876394F7E0F61508F081CF73
S113044026960FB6F894DEBF0FBECDBFDF91CF91D5
S11304501F910F91FF90EF90DF90CF90BF90AF90DE
S11304609F908F907F906F905F904F903F902F90D0
S11304700895CF93DF93EC0185E0C934D80741F4A4
S11304806091490570914A058EE090E00E94F8164B
S113049085E0C734D80741F4609147057091480559
S11304A08CE090E00E94F81685E0CD34D80741F442
S11304B060914D0570914E058AE090E00E94F81617
S11304C085E0CB34D80741F460914B0570914C051D
S11304D088E090E00E94F81685E0C135D80741F421
S11304E0609151057091520586E090E00E94F816E3
S11304F085E0CF34D80741F460914F0570915005E1
S113050084E090E00E94F81685E0C535D80741F4F0
S1130510609155057091560582E090E00E94F816AE
S1130520C355D54041F4609153057091540580E062
S113053090E00E94F816DF91CF910895CF93DF9356
S11305408EE090E00E94F216C5E4D5E09D838C8392
S11305508CE090E00E94F2169B838A838AE090E00C
S11305600E94F2169987888788E090E00E94F2162C
S11305709F838E8386E090E00E94F2169D878C878D
S113058084E090E00E94F2169B878A8782E090E0E4
S11305900E94F216998B888B80E090E00E94F216FC
S11305A09F878E87C0E013C00E94CC070E949107EA
S11305B00E94AE0783E894E00E94460183E894E039
S11305C00E94860183E496E00E94E907CF5FCB3066
S11305D058F3DF91CF910895AC0188B38F7E88BB27
S11305E090E017C0FA01E90FF11D2081222321F0C8
S11305F028B3206228BB03C028B32F7D28BB28B3AF
S1130600206428BB28B32F7B28BB28B32F7D28BBAD
S11306109F5F903138F388B3806188BB0895E82FD9
S1130620F0E0EB5AFA4F60830895CF93DF93EB0128
S11306308881813041F48A85882329F061E08AE049
S11306400E940F0304C060E08AE00E940F038981C6
S1130650813041F48B85882329F061E08CE00E948D
S11306600F0304C060E08CE00E940F038A818111B3
S113067006C08B81882331F081E090E005C081E0E1
S113068090E002C080E090E08130910579F42C85FF
S1130690211105C02D85211102C080E090E0892B35
S11306A029F061E08BE00E940F0304C060E08BE05E
S11306B00E940F038D81811112C08C81811112C09F
S11306C08E81813091F08885811112C08F818111D2
S11306D012C08985882391F081E090E011C081E007
S11306E090E00EC081E090E00BC081E090E008C093
S11306F081E090E005C081E090E002C080E090E0FD
S113070081309105D9F42F85211111C02E85211135
S11307100EC02889213059F02A89211108C029895D
S1130720211105C02B89211102C080E090E00197BE
S113073029F461E089E00E940F0304C060E089E0CD
S11307400E940F038C89882329F061E088E00E94CD
S11307500F0304C060E088E00E940F03DF91CF9193
S11307600895DC018AB388608ABB8AB380618ABB3E
S11307708AB380628ABB8AB380648ABB87B384608D
S113078087BB82B1846082B984B3806484BB84B340
S1130790806284BB84B3806184BB8AB380688ABB73
S11307A0E4E6F0E080818460808384B3806884BB65
S11307B087B3806187BB87B3806287BB87B380645C
S11307C087BB81B3806481BB81B3806881BB808136
S11307D08160808380818260808384B3816084BBF4
S11307E084B3826084BB84B3846084BB84B3886034
S11307F084BB8AB381608ABB8AB382608ABB87B3B5
S1130800816087BB87B3826087BB82B1806882B90D
S113081087B3886087BB9BB391609BBB9BB392609B
S11308209BBB98B3916098BB98B3926098BB93B10B
S1130830906893B998B3986098BB54961C920895A5
S1130840FC0180917D048F3F11F480917D048081AF
S1130850813041F4928580917D04981303C08BB359
S113086088608BBB8181813041F4938580917D04C4
S1130870981303C08BB380618BBB8281813041F4B8
S1130880948580917D04981303C08BB380628BBBE5
S11308908381813041F4958580917D04981303C050
S11308A08BB380648BBB8481813041F496858091C5
S11308B07D04981303C085B3806485BB8581813032
S11308C041F4978580917D04981303C085B38062B9
S11308D085BB8681813041F4908980917D04981391
S11308E003C085B3806185BB8781813041F49189E0
S11308F080917D04981303C08BB380688BBB808583
S1130900813051F4928980917D04981305C0A5E645
S1130910B0E08C9184608C938185813041F493891B
S113092080917D04981303C085B3806885BB809152
S11309307D048E3FF1F48BB3877F8BBB8BB38F7EAB
S11309408BBB8BB38F7D8BBB8BB38F7B8BBB85B307
S11309508F7B85BB85B38F7D85BB85B38F7E85BB40
S11309608BB38F778BBB8BB38B7F8BBB8BB38F7727
S11309708BBB80917D048F5F80937D04089585E611
S113098095E00E94B1038EEA94E00E94460983E850
S113099094E00E94E60083E496E00E9421078AE73F
S11309A095E00E940F050E949E020E947E05E5E6E6
S11309B0F5E081E0808382878183838782838487D3
S11309C084838687848BCF010E94200465E675E0CA
S11309D085E595E00E94150385E595E00E94EC020B
S11309E00E94CC070E9491070E94AE0783E894E01E
S11309F00E94460183E894E00E94860183E496E025
S1130A000E94E9076AE775E08EEA94E00E948E0985
S1130A106AE775E08EEA94E00E94750AC6CF21E089
S1130A20FC0120832183DC01569628E0EAE3F1E00F
S1130A3001900D922A95E1F7DC01909629E0E2E419
S1130A40F1E001900D922A95E1F7DC019A9621E1FB
S1130A50EBE4F1E001900D922A95E1F7DC01DC96DC
S1130A6021E1ECE5F1E001900D922A95E1F7DC013A
S1130A70A25BBF4F21E1EDE6F1E001900D922A95D2
S1130A80E1F7DC01A05ABF4F21E1EEE7F1E001906C
S1130A900D922A95E1F7DC01AE58BF4F21E1EFE852
S1130AA0F1E001900D922A95E1F7DC01AC57BF4FBC
S1130AB021E1E0EAF1E001900D922A95E1F7DC01F1
S1130AC0AA56BF4F21E1E1EBF1E001900D922A9586
S1130AD0E1F7DC01A855BF4F21E1E2ECF1E0019020
S1130AE00D922A95E1F7DC01A654BF4F8BE0E3EDAC
S1130AF0F1E001900D928A95E1F70895CF93DF9389
S1130B0080917A05882309F4F8C08EED91E09F93D3
S1130B108F930E94251681EE91E00E94421685E093
S1130B2092E00E94421681EE91E00E94421689E210
S1130B3092E00E94421681EE91E00E944216C3E8C0
S1130B40D4E06F89788D898D9A8D26EA3BE944EC4F
S1130B505CE30E94EA0E20E030E048E152E40E94A7
S1130B60E90D9F938F937F936F938DE492E09F930E
S1130B708F930E9425166B897C898D899E8920E03C
S1130B8030E040E451E40E94EA0E20E030E843EF14
S1130B9053E40E94E90D9F938F937F936F9382E7B1
S1130BA092E09F938F930E9425166F857889898997
S1130BB09A892B853C854D855E850E947D0D20E0BC
S1130BC030E040E05FE30E94EA0E20E030E048ECD1
S1130BD052E40E94EA0E20E030E040E85AE30E942A
S1130BE0EA0E9F938F937F936F9387E992E09F938D
S1130BF08F930E942516E3E4F6E087AD8F9386ADCC
S1130C008F9385AD8F9384AD8F938DEB92E09F93FB
S1130C108F930E942516E3E8F6E083818F93828107
S1130C208F9381818F9380818F9383EE92E09F9342
S1130C308F930E9425168DB79EB780960FB6F894B1
S1130C409EBF0FBE8DBFE7E8F6E083818F9382815C
S1130C508F9381818F9380818F9389E093E09F9319
S1130C608F930E94251681EE91E00E944216C5E4FE
S1130C70D5E08D818F938C818F938B818F938A8123
S1130C808F9380E393E09F938F930E942516898529
S1130C908F9388858F938F818F938E818F938BE52C
S1130CA093E09F938F930E9425168D858F938C8557
S1130CB08F938B858F938A858F9384E893E09F939A
S1130CC08F930E94251689898F9388898F938F85A6
S1130CD08F938E858F938DEA93E09F938F930E94D9
S1130CE0251681EE91E00E9442168DB79EB74E966E
S1130CF00FB6F8949EBF0FBE8DBF80917B058823ED
S1130D0009F478C080E995E09F938F9386ED93E092
S1130D109F938F930E9425168AE995E09F938F9362
S1130D2086EF93E09F938F930E94251684EA95E0C3
S1130D309F938F93C5E1D4E0DF93CF930E94251650
S1130D4086EB95E09F938F93DF93CF930E942516B4
S1130D5088EC95E09F938F93DF93CF930E942516A1
S1130D608AED95E09F938F93DF93CF930E9425168E
S1130D708CEE95E09F938F93DF93CF930E9425167B
S1130D808EEF95E09F938F93DF93CF930E94251668
S1130D908DB79EB780960FB6F8949EBF0FBE8DBFD9
S1130DA080E196E09F938F93DF93CF930E94251663
S1130DB082E296E09F938F93DF93CF930E94251650
S1130DC084E396E09F938F938CE294E09F938F93B8
S1130DD00E94251681EE91E09F938F930E94251621
S1130DE010927B058DB79EB70E960FB6F8949EBFF2
S1130DF00FBE8DBF80917A05882301F18AE090E0CF
S1130E000E943B168CE795E09F938F9389E494E0CE
S1130E109F938F930E9425168AE090E00E943B16D0
S1130E208EE594E09F938F930E94251610927A0585
S1130E300F900F900F900F900F900F90DF91CF9124
S1130E40089588E480937000089584EA8093740080
S1130E50809174008823E4F7089584E980937400F2
S1130E6008958093730084E88093740080917400E3
S1130E708823E4F70895813021F484EC809374008E
S1130E8003C084E880937400809174008823E4F79D
S1130E90809173000895CF93DF93C82F0E94250794
S1130EA08C2F90E0880F991F81600E94310781E0A8
S1130EB00E943B07C82F81E00E943B07D82F0E9465
S1130EC02D078C2F90E0982F88278D2BDF91CF91C1
S1130ED00895CF93DF93C82FD62F0E9425078C2F18
S1130EE0880F0E9431078D2F0E9431070E94250729
S1130EF08C2F90E0880F991F81600E94310781E058
S1130F000E943B07C82F80E00E943B07D82F0E9415
S1130F102D078C2F90E0982F88278D2BDF91CF9170
S1130F200895CF93DF93809180048A3011F4109256
S1130F308004C0918004D0E065EE80E40E946907DB
S1130F40CC0FDD1FCD5BD94F9983888380918004BA
S1130F508F5F80938004DF91CF910895CF93DF93C7
S1130F6080917F048A3011F410927F04C0917F0431
S1130F70D0E063EE80E40E9469072A96CC0FDD1F5F
S1130F80CD5BD94F9983888380917F048F5F809351
S1130F907F04DF91CF910895CF93DF9380917E04F6
S1130FA08A3011F410927E04C0917E04D0E083E272
S1130FB00E944B076496CC0FDD1FCD5BD94F9983FC
S1130FC0888380917E048F5F80937E04DF91CF912C
S1130FD008953F924F925F926F927F928F929F9269
S1130FE0AF92BF92CF92DF92EF92FF920F931F9333
S1130FF0CF93DF93EC01A0E0512C612C712C812C58
S1131000912CB0E0312C412C23C0EA2FF0E0EE0FFC
S1131010FF1FEC0FFD1FA080B1802A2D3B2D40E067
S113102050E060E070E080E090E0A52CB62CC72C86
S1131030D82CE92CFB2E032D142D0E946A13522E5A
S1131040632E742E852E962EB72F382E492EAF5F21
S1131050AA30D8F20F2EFAE0AF2EF02DB12CC12C0D
S1131060D12CE12CF12C00E010E0252D362D472D5C
S1131070582D692D7B2F832D942D0E94D6120E940A
S11310805B0E6CAF7DAF8EAF9FAF20E030E04AEFD8
S113109052E40E94EA0E20E030E040E857E30E9468
S11310A0EA0E20E030E040EC50E40E947C0D6CAF8E
S11310B07DAF8EAF9FAFA0E0512C612C712C812CA1
S11310C0912CB0E0312C412C24C0EA2FF0E03A9668
S11310D0EE0FFF1FEC0FFD1FA080B1802A2D3B2DCA
S11310E040E050E060E070E080E090E0A52CB62C99
S11310F0C72CD82CE92CFB2E032D142D0E946A1327
S1131100522E632E742E852E962EB72F382E492EEE
S1131110AF5FAA30D0F20F2EFAE0AF2EF02DB12C33
S1131120C12CD12CE12CF12C00E010E0252D362D22
S1131130472D582D692D7B2F832D942D0E94D61277
S11311400E945B0E8E01005C1F4FF8016083718367
S11311508283938322E538EB4FE253E40E94EA0E44
S113116020E030E040E857E30E94EA0E26E636E647
S11311704BE352E40E947C0DF80160837183828307
S11311809383A0E0512C612C712C812C912CB0E024
S1131190312C412C24C0EA2FF0E07496EE0FFF1F8F
S11311A0EC0FFD1FA080B1802A2D3B2D40E050E0C4
S11311B060E070E080E090E0A52CB62CC72CD82C21
S11311C0E92CFB2E032D142D0E946A13522E632E3C
S11311D0742E852E962EB72F382E492EAF5FAA3047
S11311E0D0F20F2EFAE0AF2EF02DB12CC12CD12C61
S11311F0E12CF12C00E010E0252D362D472D582D43
S1131200692D7B2F832D942D0E94D612CC5BDF4F4A
S11312100E945B0E688379838A839B83DF91CF91DD
S11312201F910F91FF90EF90DF90CF90BF90AF9000
S11312309F908F907F906F905F904F903F90089514
S1131240CF93C82F8AB18F778AB98AB18F7E8AB932
S1131250CA3019F48DE00E94200983B1846083B9F7
S11312605D9BFECFCCB98BEF91E00197F1F700C005
S1131270000083B18B7F83B98AB180688AB98AB14F
S113128080618AB980E090E0CF91089521B32E7FE8
S113129021BB109290002CE029B926E02093950000
S11312A028E92AB926E031E030939206209391068A
S11312B080589F4FFC011082789408951F920F92DA
S11312C00FB60F9211248F939F93EF93FF939CB1CA
S11312D080912E05811119C09B3711F4109281045D
S11312E09D3739F481E080932E05809181048093A9
S11312F02F0580918104882344F0E82FF0E0E25523
S1131300FB4F90838F5F80938104FF91EF919F91B6
S11313108F910F900FBE0F901F9018950F931F93EE
S1131320CF93DF93FC01E058FF4F2081222309F47F
S1131330D7C08B01EC01319640816A5E7F4F50E04B
S11313400E94A115892B29F481E0FE01ED57FF4F7E
S11313508083FE01EF57FF4F408150E0B801605E8B
S11313607F4FCE010E94A115892B29F481E0FE0153
S1131370EC57FF4F8083FE01EF57FF4F408150E051
S113138044505109B801665D7F4FCE010E94A115FA
S1131390892B29F481E0FE01EB57FF4F8083FE0186
S11313A0EF57FF4F408150E044505109B801645C4D
S11313B07F4FCE010E94A115892B29F481E0FE0103
S11313C0EA57FF4F8083FE01EF57FF4F408150E003
S11313D044505109B801625B7F4FCE010E94A115B0
S11313E0892B29F481E0FE01E957FF4F8083FE0138
S11313F0EF57FF4F408150E044505109B801605A03
S11314007F4FCE010E94A115892B29F481E0FE01B2
S1131410E857FF4F8083FE01EF57FF4F408150E0B4
S113142044505109B8016E587F4FCE010E94A11556
S1131430892B29F481E0FE01E757FF4F8083FE01E9
S1131440EF57FF4F408150E044505109B8016C57A9
S11314507F4FCE010E94A115892B29F481E0FE0162
S1131460E657FF4F8083FE01EF57FF4F408150E066
S113147044505109B8016A567F4FCE010E94A1150C
S1131480892B29F481E0FE01E557FF4F8083FE019B
S1131490EF57FF4F408150E044505109B80168555F
S11314A07F4FCE010E94A115892B29F481E0FE0112
S11314B0E457FF4F8083FE01EF57FF4F4081B8018F
S11314C066547F4F50E0CE010E94A115892B29F468
S11314D081E0FE01E357FF4F8083C058DF4F18823D
S11314E0DF91CF911F910F910895CF92DF92EF92E8
S11314F0FF920F931F93CF93DF9300D000D01F92DE
S1131500CDB7DEB78C017B01F801ED57FF4F808129
S1131510882399F06AE674E0C70146960E949515FF
S1131520BC01C70102960E949A15F801ED57FF4FBE
S1131530108281E0F7018083D1C2F801EC57FF4F9C
S11315408081882399F06AE674E0C70180960E943E
S11315509515BC01C70102960E949A15F801EC5733
S1131560FF4F108281E0F7018083B8C2F801EB5786
S1131570FF4F8081882309F44AC0F80122899189A8
S113158080891F922F931F929F931F928F938DE6B2
S113159094E09F938F93CE0101966C019F938F9358
S11315A00E947216C6010E9494140F2EF5E4CF2EE9
S11315B0F5E0DF2EF02DF601958384836AE674E06E
S11315C0C7018A960E94951597012E5F3F4FF60139
S11315D045814F9344814F939F938F9384E794E085
S11315E09F938F933F932F930E94721689E495E003
S11315F00E943902F801EB57FF4F108281E0F70196
S113160080830FB6F894DEBF0FBECDBF67C2F8016A
S1131610EA57FF4F8081882309F44AC0F8012289E0
S1131620918980891F922F931F929F931F928F936A
S11316308DE694E09F938F93CE0101966C019F9366
S11316408F930E947216C6010E9494140F2EF5E423
S1131650CF2EF5E0DF2EF02DF601938382836AE628
S113166074E0C701CC960E94951597012E5F3F4FF9
S1131670F60143814F9342814F939F938F9384E765
S113168094E09F938F933F932F930E94721687E465
S113169095E00E943902F801EA57FF4F108281E079
S11316A0F70180830FB6F894DEBF0FBECDBF16C21C
S11316B0F801E957FF4F8081882309F44EC0F801EF
S11316C033892289918980891F923F931F922F9396
S11316D01F929F931F928F938DE694E09F938F9315
S11316E0CE0101966C019F938F930E947216C601DE
S11316F00E9494140F2EF5E4CF2EF5E0DF2EF02D8A
S1131700F601918780876AE674E0C701825B9F4F88
S11317100E94951597012E5F3F4FF60141854F9327
S113172040854F939F938F9384E794E09F938F9387
S11317303F932F930E9472168DE495E00E94390224
S1131740F801E957FF4F108281E0F70180830FB65B
S1131750F894DEBF0FBECDBFC1C1F801E857FF4FFB
S11317608081882309F44EC0F80133892289918944
S113177080891F923F931F922F931F929F931F92D2
S11317808F938DE694E09F938F93CE0101966C0125
S11317909F938F930E947216C6010E9494140F2E79
S11317A0F5E4CF2EF5E0DF2EF02DF6019783868346
S11317B06AE674E0C701805A9F4F0E94951597010D
S11317C02E5F3F4FF60147814F9346814F939F937E
S11317D08F9384E794E09F938F933F932F930E947A
S11317E072168BE495E00E943902F801E857FF4F26
S11317F0108281E0F70180830FB6F894DEBF0FBE3C
S1131800CDBF6CC1F801E757FF4F8081882309F4ED
S11318104BC0F8012289918980891F922F931F92CE
S11318209F931F928F938DE694E09F938F93CE01A5
S113183001966C019F938F930E947216C6010E94B9
S113184094140F2EF5E4CF2EF5E0DF2EF02DF601E3
S1131850958784876AE674E0C7018E589F4F0E947B
S1131860951597012E5F3F4FF60145854F934485AB
S11318704F939F938F9384E794E09F938F933F9329
S11318802F930E94721681E595E00E943902F801B7
S1131890E757FF4F108281E0F70180830FB6F89479
S11318A0DEBF0FBECDBF1AC1F801E657FF4F8081DE
S11318B0882309F44BC0F8012289918980891F92F9
S11318C02F931F929F931F928F938DE694E09F9383
S11318D08F93CE0101966C019F938F930E94721691
S11318E0C6010E9494140F2EF5E4CF2EF5E0DF2EEE
S11318F0F02DF601938782876AE674E0C7018C575E
S11319009F4F0E94951597012E5F3F4FF601438527
S11319104F9342854F939F938F9384E794E09F93D3
S11319208F933F932F930E9472168FE495E00E9449
S11319303902F801E657FF4F108281E0F7018083F6
S11319400FB6F894DEBF0FBECDBFC8C0F801E5578F
S1131950FF4F8081882309F44BC0F80122899189C3
S113196080891F922F931F929F931F928F938DE6CE
S113197094E09F938F93CE0101966C019F938F9374
S11319800E947216C6010E9494140F2EF5E4CF2E05
S1131990F5E0DF2EF02DF601918B808B6AE674E082
S11319A0C7018A569F4F0E94951597012E5F3F4F9E
S11319B0F60141894F9340894F939F938F9384E716
S11319C094E09F938F933F932F930E94721685E523
S11319D095E00E943902F801E557FF4F108281E03B
S11319E0F70180830FB6F894DEBF0FBECDBF76C07B
S11319F0F801E457FF4F8081882309F44BC0F801B4
S1131A002289918980891F922F931F929F931F92FD
S1131A108F938DE694E09F938F93CE0101966C0192
S1131A209F938F930E947216C6010E9494140F2EE6
S1131A30F5E4CF2EF5E0DF2EF02DF60197878687AB
S1131A406AE674E0C70188559F4F0E949515970177
S1131A502E5F3F4FF60147854F9346854F939F93E3
S1131A608F9384E794E09F938F933F932F930E94E7
S1131A70721683E595E00E943902F801E457FF4F9E
S1131A80108281E0F70180830FB6F894DEBF0FBEA9
S1131A90CDBF24C0F801E357FF4F80818823B1F004
S1131AA06AE674E0C70186549F4F0E949515BC01F5
S1131AB0C70102960E949A1581E0F7018183F8011B
S1131AC0E357FF4F1082F701808308C0809182049E
S1131AD08F5F80938204843108F416CD0F900F90A9
S1131AE00F900F900F90DF91CF911F910F91FF9066
S1131AF0EF90DF90CF9008955058BB27AA270E94FB
S1131B00940D0C94B00E0E94A20E38F00E94A90EFF
S1131B1020F039F49F3F19F426F40C949F0E0EF430
S1131B20E095E7FB0C94990EE92F0E94C10E58F33F
S1131B30BA17620773078407950720F079F4A6F5AE
S1131B400C94E30E0EF4E0950B2EBA2FA02D0B018E
S1131B50B90190010C01CA01A0011124FF27591BEE
S1131B6099F0593F50F4503E68F11A16F040A22FF4
S1131B70232F342F4427585FF3CF46953795279565
S1131B80A795F0405395C9F77EF41F16BA0B620B64
S1131B90730B840BBAF09150A1F0FF0FBB1F661FAB
S1131BA0771F881FC2F70EC0BA0F621F731F841FEE
S1131BB048F4879577956795B795F7959E3F08F014
S1131BC0B0CF9395880F08F09927EE0F97958795D6
S1131BD008950E94FD0D0C94B00E0E94A90E58F0B9
S1131BE00E94A20E40F029F45F3F29F00C94990E54
S1131BF051110C94E40E0C949F0E0E94C10E68F3D4
S1131C009923B1F3552391F3951B550BBB27AA27B1
S1131C1062177307840738F09F5F5F4F220F331FEB
S1131C20441FAA1FA9F335D00E2E3AF0E0E832D0B3
S1131C3091505040E695001CCAF72BD0FE2F29D0B6
S1131C40660F771F881FBB1F261737074807AB0788
S1131C50B0E809F0BB0B802DBF01FF2793585F4FFD
S1131C603AF09E3F510578F00C94990E0C94E40ED2
S1131C705F3FE4F3983ED4F3869577956795B795DF
S1131C80F7959F5FC9F7880F911D9695879597F9EA
S1131C900895E1E0660F771F881FBB1F6217730763
S1131CA08407BA0720F0621B730B840BBA0BEE1F78
S1131CB088F7E0950895E894F92F96EBFF2381F0D7
S1131CC0121613061406440B9395F695879577958B
S1131CD0679557954040FF23B9F71BC0992708958E
S1131CE0882351F49850D2F7872B762F652F542FE1
S1131CF0432F322F20E0B1F3121613061406440BBF
S1131D0088233AF09A95440F551F661F771F881F42
S1131D10CAF755234AF4440F551F11F460FF04C059
S1131D206F5F7F4F8F4F9F4F880F9695879597F9D9
S1131D30089597F99F6780E870E060E008959FEF49
S1131D4080EC089500240A9416161706180609064E
S1131D50089500240A94121613061406050608951D
S1131D60092E0394000C11F4882352F0BB0F40F4A5
S1131D70BF2B11F460FF04C06F5F7F4F8F4F9F4FE5
S1131D80089557FD9058440F551F59F05F3F71F067
S1131D904795880F97FB991F61F09F3F79F08795CE
S1131DA00895121613061406551FF2CF4695F1DF57
S1131DB008C0161617061806991FF1CF86957105E7
S1131DC0610508940895E894BB2766277727CB011B
S1131DD097F908950E94FD0E0C94B00E0E94A20E75
S1131DE038F00E94A90E20F0952311F00C94990E5E
S1131DF00C949F0E11240C94E40E0E94C10E70F3F7
S1131E00959FC1F3950F50E0551F629FF001729F9B
S1131E10BB27F00DB11D639FAA27F00DB11DAA1FAA
S1131E20649F6627B00DA11D661F829F2227B00DF7
S1131E30A11D621F739FB00DA11D621F839FA00D82
S1131E40611D221F749F3327A00D611D231F849FD2
S1131E50600D211D822F762F6A2F11249F57504029
S1131E609AF0F1F088234AF0EE0FFF1FBB1F661FA4
S1131E70771F881F91505040A9F79E3F510580F06D
S1131E800C94990E0C94E40E5F3FE4F3983ED4F363
S1131E90869577956795B795F795E7959F5FC1F711
S1131EA0FE2B880F911D9695879597F90895A0E1CB
S1131EB0B0E0EDE5FFE00C9433137C011B016A01F3
S1131EC0FC0117821682838181FF44C39E012F5F28
S1131ED03F4F3901F7019381F10193FD859193FF00
S1131EE081911F01882309F431C3853239F493FDAC
S1131EF0859193FF81911F01853239F4B70190E0F8
S1131F000E94E91556016501E5CF10E0512C912C92
S1131F10FFE1F915D8F08B3279F038F4803279F09A
S1131F208332A1F4F92DF0612EC08D3261F080333B
S1131F3069F4292D21602DC0392D3260932E892D0D
S1131F408460982E2AC0E92DE86015C097FC2DC046
S1131F5020ED280F2A3088F496FE06C03AE0139F3D
S1131F60200D1124122F19C08AE0589E200D11242F
S1131F70522EE92DE0629E2E10C08E3231F496FC72
S1131F80E5C2F92DF0649F2E08C08C3621F4292D6A
S1131F902068922E02C0883641F4F10193FD8591A8
S1131FA093FF81911F018111B3CF9BEB980F933065
S1131FB020F4992D9061805E07C09BE9980F9330BF
S1131FC008F066C1992D9F7E96FF16E09F73992EA7
S1131FD0853619F49064992E08C0863621F4392F79
S1131FE03068932E02C01111115097FE07C01C33A4
S1131FF050F444244394410E27E00BC0183038F0C9
S113200027E017E005C027E09CE3492E02C0212FFA
S1132010412C560184E0A80EB11CF6016081718147
S113202082819381042DA3010E94B2146C01F98171
S1132030FC87F0FF02C0F3FF06C091FC06C092FECD
S113204006C000E205C00DE203C00BE201C000E0DF
S11320508C858C7019F001115AC29BC297FE10C076
S11320604C0CFC85F4FF04C08A81813309F44A9442
S1132070141474F528E0241578F588E0482E2CC053
S113208096FC2AC0812F90E08C159D059CF03CEFB6
S1132090C3163FEFD30674F0892D8068982E0AC0CA
S11320A0E2E0F0E0EC0FFD1FE10FF11D80818033D1
S11320B019F411501111F4CF97FE0EC04424439427
S11320C0410E812F90E0C816D9062CF41C1904C0C7
S11320D04424439401C010E097FE06C01C141D0460
S11320E034F4C601019605C085E090E002C081E0A9
S11320F090E001110196112331F0212F30E02F5F80
S11321003F4F820F931F252D30E08217930714F45D
S1132110581A01C0512C892D897049F4552039F081
S1132120B70180E290E00E94E9155A94F7CF0023AA
S113213029F0B701802F90E00E94E91593FC09C0B3
S1132140552039F0B70180E390E00E94E9155A94D4
S1132150F7CF97FE4CC04601D7FE02C0812C912CCC
S1132160C60188199909F301E80FF91FFE87ED8765
S1132170960124193109388B2F87012F10E011950E
S1132180019511093FEF8316930629F4B7018EE2F6
S113219090E00E94E915C814D9044CF08F85988901
S11321A08815990524F4ED85FE85818101C080E3BD
S11321B0F1E08F1A91082D853E852F5F3F4F3E87B2
S11321C02D87801691062CF0B70190E00E94E91546
S11321D0D9CFC814D90441F49A81963320F49533A5
S11321E019F43C8534FF81E3B70190E04EC08A8145
S11321F0813319F09C859F7E9C87B70190E00E94F3
S1132200E915111105C094FC18C085E690E017C0CB
S1132210B7018EE290E00E94E9151E5F82E001E0C2
S1132220080FF301E80FF11D8081B70190E00E94CF
S1132230E915802F0113F3CFE6CF85E490E0B701D1
S11322400E94E915D7FC06C0C114D10441F4EC8501
S1132250E4FF05C0D194C194D1088DE201C08BE2A2
S1132260B70190E00E94E91580E32AE0C216D10488
S11322702CF08F5FFAE0CF1AD108F7CFB70190E0C6
S11322800E94E915B701C601C0960E94E91554C120
S1132290833631F0833779F0833509F056C020C096
S11322A0560132E0A30EB11CF6018081898301E05E
S11322B010E0630112C05601F2E0AF0EB11CF6014A
S11322C0C080D18096FE03C0612F70E002C06FEF22
S11322D07FEFC6010E94AF158C01F92DFF7714C062
S11322E0560122E0A20EB11CF601C080D18096FEF8
S11322F003C0612F70E002C06FEF7FEFC6010E9440
S11323008A158C01F92DF0689F2EF3FD1AC0852DD6
S113231090E008171907A8F4B70180E290E00E9442
S1132320E9155A94F4CFF60197FC859197FE8191B3
S11323306F01B70190E00E94E91551105A940150C1
S113234011090115110579F7F7C0843611F08936A2
S113235061F5560197FE09C024E0A20EB11CF601F6
S113236060817181828193810AC0F2E0AF0EB11C59
S1132370F60160817181072E000C880B990BF92DF1
S1132380FF769F2E97FF09C0909580957095619573
S11323907F4F8F4F9F4FF0689F2E2AE030E0A301BC
S11323A00E949416C82EC6183FC0092D853721F403
S11323B00F7E2AE030E01DC0097F8F3691F018F4BB
S11323C0883559F0C3C0803719F0883711F0BEC082
S11323D0006104FF09C0046007C094FE08C00660E1
S11323E006C028E030E005C020E130E002C020E172
S11323F032E0560107FF09C084E0A80EB11CF601C3
S1132400608171818281938108C0F2E0AF0EB11CBA
S1132410F6016081718180E090E0A3010E9494162E
S1132420C82EC6180F77902E96FE0BC0092D0E7F6E
S1132430C11650F494FE0AC092FC08C0092D0E7E09
S113244005C0DC2C092D03C0DC2C01C0D12E04FFF7
S11324500DC0FE01EC0DF11D8081803311F4097E65
S113246009C002FF06C0D394D39404C0802F867899
S113247009F0D39403FD11C000FF06C01C2DD51430
S113248080F4150D1D190DC0D51458F4B70180E260
S113249090E00E94E915D394F7CFD51410F45D1899
S11324A001C0512C04FF10C0B70180E390E00E94EA
S11324B0E91502FF17C001FD03C088E790E002C0E0
S11324C088E590E0B7010CC0802F867859F001FFB1
S11324D002C08BE201C080E207FD8DE2B70190E00B
S11324E00E94E915C11638F4B70180E390E00E9418
S11324F0E9151150F7CFCA94F301EC0DF11D808159
S1132500B70190E00E94E915C110F5CF15C0F4E0C1
S1132510F51560F584E0581A93FE1FC0011127C019
S11325202C8523FF2AC00CE810E0392D3071932E3E
S1132530F8018491811124C0552009F4E4CCB70139
S113254080E290E00E94E9155A94F6CFF701868163
S1132550978126C08FEF9FEF23C0B70180E290E000
S11325600E94E9155A945110F8CFD8CF512CB701D5
S1132570802F90E00E94E915D3CF00E910E0D5CF79
S113258091108052B70190E00E94E9150F5F1F4F30
S1132590CFCF23E0251510F483E0BDCF512CC0CF5D
S11325A06096E2E10C944F13689401C0E8948F9212
S11325B09F92CF93DF930E94E212DF91CF919F907D
S11325C08F90089588249924F401E401B0E49F9342
S11325D0AA279A158B049C04ED05FE05CF05D007A8
S11325E0A10798F4AD2FDC2FCF2FFE2FE92D982CC7
S11325F0892E982F872F762F652F542F432F322F14
S11326002227B85031F7BF9127C01B2EBF91BB279B
S1132610220F331F441F551F661F771F881F991FE2
S1132620881C991CEE1FFF1FCC1FDD1FAA1FBB1F98
S11326308A149B04EC05FD05CE05DF05A007B10750
S113264048F08A189B08EC09FD09CE09DF09A00BA4
S1132650B10B21601A94E1F62EF49401AF01BE018E
S1132660CD01000C08952F923F924F925F926F928A
S11326707F928F929F92AF92BF92CF92DF92EF920E
S1132680FF920F931F93CF93DF93CDB7DEB7CA1B8F
S1132690DB0B0FB6F894DEBF0FBECDBF09942A88BA
S11326A0398848885F846E847D848C849B84AA8462
S11326B0B984C884DF80EE80FD800C811B81AA81EF
S11326C0B981CE0FD11D0FB6F894DEBF0FBECDBFBA
S11326D0ED0108952A0D3B1D4C1D5D1D6E1D7F1DD2
S11326E0801F911F08950F931F93CF93DF93823020
S11326F0910510F482E090E0E0918D06F0918E0651
S113270020E030E0A0E0B0E0309719F14081518141
S11327100281138148175907C8F08417950769F493
S1132720109731F012960C93129713961C9327C0AE
S113273000938D0610938E0622C02115310519F0E1
S11327404217530718F49A01BD01EF01DF01F801A4
S1132750DBCF21153105F9F0281B390B2430310565
S113276080F48A819B816115710521F0FB019383BB
S1132770828304C090938E0680938D06FE01329668
S113278044C0FE01E20FF31F81939193225031095B
S1132790398328833AC020918B0630918C06232BF1
S11327A041F4209102013091030130938C0620936F
S11327B08B0620910001309101012115310541F46E
S11327C02DB73EB74091040150910501241B350BF0
S11327D0E0918B06F0918C06E217F307A0F42E1B10
S11327E03F0B2817390778F0AC014E5F5F4F241771
S11327F0350748F04E0F5F1F50938C0640938B06AD
S11328008193919302C0E0E0F0E0CF01DF91CF919A
S11328101F910F910895CF93DF93009709F481C01E
S1132820FC01329713821282A0918D06B0918E061C
S1132830109781F420813181820F931F20918B06A0
S113284030918C062817390751F5F0938C06E093E4
S11328508B0667C0ED0120E030E0CE17DF0740F4BF
S11328604A815B819E0141155105F1F0EA01F5CFE2
S1132870D383C28340815181840F951FC817D90720
S113288059F488819981840F951F029691838083DE
S11328908A819B81938382832115310529F4F093E6
S11328A08E06E0938D063DC0E901FB83EA834991DE
S11328B05991C40FD51FEC17FD0761F480819181F4
S11328C0840F951F0296E9019983888382819381FD
S11328D09B838A83E0E0F0E012968D919C9113979C
S11328E0009719F0FD01DC01F7CF8D919C911197B0
S11328F09D012E5F3F4F820F931F20918B063091D5
S11329008C062817390769F4309729F410928E063B
S113291010928D0602C013821282B0938C06A0938B
S11329208B06DF91CF910895FC0188279927E894BD
S113293021912032E9F3293010F02E30C8F32B32E4
S113294041F02D3239F4689404C00E94E115820FDD
S1132950911D219120532A30C0F31EF49095819546
S11329609F4F0895283008F027E03327DA01990FA4
S1132970311D87FD916000966105710539F432605F
S11329802E5F3D9330E32A95E1F708959F3F30F0A1
S113299080387105610509F03C5F3C5F3D939130DF
S11329A008F08068911DDF93CF931F930F93FF92DC
S11329B0EF92192F987F9695E92F96959695E90FA2
S11329C0FF27E251FF4F99273327EE24FF24A70165
S11329D0E70105900894079428F4360FE71EF81EC3
S11329E0491F511D660F771F881F991F0694A1F771
S11329F00590079428F4E70EF81E491F561FC11DC1
S1132A00770F881F991F661F0694A1F705900794F6
S1132A1028F4F80E491F561FC71FD11D880F991F90
S1132A20661F771F0694A1F70590079420F4490FB9
S1132A30561FC71FD81F990F661F771F881F06943C
S1132A40A9F784911095177041F0D695C7955795BD
S1132A504795F794E7941A95C1F7E4E9F0E0689490
S1132A601590159135916591959105907FE2739537
S1132A70E118F10A430B560BC90BD009C0F7E10C5E
S1132A80F11E431F561FC91FD01D7EF4703311F46D
S1132A908A95E6CFE894015030F0080F0AF4002735
S1132AA0021708F4202F2395022F7A3328F079E3B4
S1132AB07D932A95E9F710C07D932A9589F60694AB
S1132AC097956795379517951794E118F10A430B75
S1132AD0560BC90BD00998F023957E9173957A33E0
S1132AE008F070E37C932013B8F77E9170617D93B6
S1132AF030F0839571E37D9370E32A95E1F7112417
S1132B00EF90FF900F911F91CF91DF91992787FD4F
S1132B1090950895FC010590615070400110D8F71C
S1132B20809590958E0F9F1F08954AE754E00E9468
S1132B30BA150895FB01DC0101900D920020E1F724
S1132B400895FB01DC014150504030F08D9101901B
S1132B50801919F40020B9F7881B990B0895FC011A
S1132B606150704001900110D8F7809590958E0FB8
S1132B709F1F0895FA01A191B081009719F410974D
S1132B80E1F0CD01DC01CD010D90002011F4C00174
S1132B9013C0FB012191222319F02015D9F7F3CF9B
S1132BA0FB012191201519F41E92119606C02223CF
S1132BB0C1F70D900020A1F7D001FA01A193B083D1
S1132BC008957AE0979F902D879F802D910D112471
S1132BD008950F931F93CF93DF93FB01238121FD6E
S1132BE003C08FEF9FEF2CC022FF16C04681578190
S1132BF0248135814217530744F4A081B1819D019A
S1132C002F5F3F4F318320838C93268137812F5F41
S1132C103F4F3783268314C08B01EC01FB010084F2
S1132C20F185E02D0995892BE1F6D80116968D9151
S1132C309C911797019617969C938E931697CE01A5
S1132C40DF91CF911F910F910895A0E0B0E0EBE2E6
S1132C50F6E10C944313AE014B5F5F4FFA016191AF
S1132C607191AF0180919106909192060E94570F45
S1132C70E2E00C945F1360919106709192060E94B9
S1132C80E91508950F931F93CF93DF93E091910675
S1132C90F0919206238121FF1BC08C01D0E0C0E09B
S1132CA0F80181918F016091910670919206DB0188
S1132CB01896ED91FC911997882331F00995892B89
S1132CC079F3DFEFCFEFECCF8AE00995892B19F088
S1132CD08FEF9FEF02C08D2F9C2FDF91CF911F911B
S1132CE00F910895AEE0B0E0E8E7F6E10C944113EB
S1132CF00D891E8986E08C831A8309838FEF9FE7F1
S1132D009E838D83AE01475E5F4F6F89788DCE01C0
S1132D1001960E94570FEF81F885E00FF11F108292
S1132D202E96E4E00C945D13FA01AA27283051F1A1
S1132D30203181F1E8946F936E7F6E5F7F4F8F4FE8
S1132D409F4FAF4FB1E03ED0B4E03CD0670F781F47
S1132D50891F9A1FA11D680F791F8A1F911DA11D2C
S1132D606A0F711D811D911DA11D20D009F4689465
S1132D703F912AE0269F11243019305D3193DEF60D
S1132D80CF010895462F4770405D4193B3E00FD0C3
S1132D90C9F7F6CF462F4F70405D4A3318F0495DAE
S1132DA031FD4052419302D0A9F7EACFB4E0A69591
S1132DB09795879577956795BA95C9F700976105B3
S1132DC0710508959B01AC010A2E06945795479509
S1132DD037952795BA95C9F7620F731F841F951FFE
S1132DE0A01D0895A8E1B0E042E050E00C94FF1665
S1132DF00E940D17272F0C940E17DC01CB01FC0148
S1132E00E199FECF06C0FFBBEEBBE09A31960DB24E
S1132E100D9241505040B8F70895262FE199FECF06
S1132E209FBB8EBB2DBB0FB6F894E29AE19A0FBEFE
S10B2E3001960895F894FFCF08
S1132E3800009506200000000002000000002009A0
S1132E4800000000414443205A65696C65204E55D2
S1132E584C4C2000414443205370616C74653A2003
S1132E682564204E554C4C200A007B5441534B3169
S1132E787D007B5550444154457D007B5345542087
S1132E8854454D505F4C20544F3A7D007B53455474
S1132E982054454D505F4820544F3A7D007B53459C
S1132EA854204C554D495F4C20544F3A7D007B5378
S1132EB84554204C554D495F4820544F3A7D007B7A
S1132EC85345542048554D495F4C20544F3A7D0092
S1132ED87B5345542048554D495F4820544F3A7D0B
S1132EE8007B534554204748554D5F4C20544F3A76
S1132EF87D007B534554204748554D5F4820544F27
S1132F083A7D007B434D445F494E464F7D001B6329
S1132F18007C2D2D2D2D2D2D2D2D2D2D2D2D2D2DB3
S1132F282D2D2D2D2D2D2D2D2D2D2D2D2D2D2D2DC5
S1132F382D2D2D7C007C205342494F2056302E33B2
S1132F482020202020202020202020202020202075
S1132F58202020202020207C007C204D4F445553E5
S1132F683A204175746F2020202020202020202022
S1132F7820202020202020202020207C007C20537A
S1132F8874726F6D3A2020202025312E336620413B
S1132F982020202020202020202020202020207CC9
S1132FA80A007C205370616E6E756E673A20253274
S1132FB82E32662056202020202020202020202069
S1132FC8202020207C0A007C20474E4448554D4947
S1132FD83A202025332E3166202F2020202020203F
S1132FE8202020202020202020207C0A007C20482B
S1132FF8554D493A202020202025332E31662020A3
S113300820202020202020202020202020202020B4
S11330187C0A007C2054454D503A2020202020254D
S1133028332E31662020202020202020202020201C
S11330382020202020207C0A007C204C554D493A31
S1133048202020202025332E3166202020202020F7
S1133058202020202020202020202020207C0A003E
S11330687C2054454D5020482F4C20202025322EBA
S1133078306420432025322E306420432020202031
S113308820202020202020207C0A007C204C554D24
S11330984920482F4C2025332E3064206C78202575
S11330A8332E3064206C78202020202020202020FB
S11330B8207C0A007C2048554D4920482F4C202567
S11330C8332E30642070632025332E3064207063DF
S11330D8202020202020202020207C0A007C20473B
S11330E848554D20482F4C2025332E3064207063DA
S11330F82025332E306420706320202020202020B7
S11331082020207C0A007C3D3D3E20257320202081
S113311820202020202020202020202020202020A3
S11331282020207C0A007C3D3D3E20257320202061
S11331382020202020202020202020202020202083
S113314820207C0A007C3D3D3E2025732020202041
S11331582020202020202020207C0A007C3D3D3E89
S113316820257320202020202020202020202020FB
S11331782020202020207C0A002D2D284C41535447
S11331882D434D44292D2D3E202573200A002D2D35
S113319828434D44292D2D3E20007B7D00256325A1
S10D31A863256300257320256400ED
S9030000FC
