:100000000C9446000C9458000C9458000C94580022
:100010000C9458000C9458000C9458000C94580000
:100020000C9458000C945B010C9458000C945800EC
:100030000C94F8000C9458000C9458000C945A003E
:100040000C9458000C9458000C94B0040C94580074
:100050000C9458000C9458000C9458000C945800C0
:100060000C9458000C9458000C9458000C945800B0
:100070000C9458000C9458000C9458000C945800A0
:100080000C9458000C9458000C94580011241FBE76
:10009000CFEFD0E1DEBFCDBF22E0A0E0B1E001C0F4
:1000A0001D92AC33B207E1F70E945D020C94980DEB
:1000B0000C9400001F920F920FB60F9211248F9391
:1000C0009F93EF93FF93809113018F5F80931301B0
:1000D0009091130180913102891720F080913102B3
:1000E000DB9A01C0DB98909113018091A5018917DB
:1000F00020F08091A501DD9A01C0DD989091130157
:1001000080913902891720F080913902DE9A01C06E
:10011000DE989091130180913902891720F0809127
:100120003902DE9A01C0DE98909113018091390264
:10013000891720F080913902DE9A01C0DE989091F3
:10014000130180919F01891720F080919F01AE9A41
:1001500001C0AE98909113018091A901891720F0F8
:100160008091A901AD9A01C0AD9890911301809141
:100170009D01891720F080919D01AC9A01C0AC9837
:100180009091130180913602891720F080913602F8
:10019000DF9A01C0DF989091130180919E01891729
:1001A00040F080919E01E5E6F0E0808184608083EC
:1001B00005C0E5E6F0E080818B7F8083909113019C
:1001C0008091A001891720F08091A001AF9A01C011
:1001D000AF98809113018F3F11F410921301FF919A
:1001E000EF919F918F910F900FBE0F901F901895D8
:1001F0001F920F920FB60F9211248F939F93AF937C
:10020000BF938091320290913302A0913402B09159
:1002100035020B97A105B105C8F580913202909186
:100220003302A0913402B09135020196A11DB11D97
:100230008093320290933302A0933402B09335023C
:100240008091320290913302A0913402B091350234
:100250000597A105B10568F085E090E0A0E0B0E069
:100260008093990190939A01A0939B01B0939C0174
:1002700019C081E090E0A0E0B0E0809399019093F4
:100280009A01A0939B01B0939C010CC085E090E083
:10029000A0E0B0E08093990190939A01A0939B0114
:1002A000B0939C01BF91AF919F918F910F900FBE22
:1002B0000F901F9018951F920F920FB60F92112456
:1002C0002F933F934F935F936F937F938F939F935E
:1002D000AF93BF93EF93FF93CF93DF931F92CDB76D
:1002E000DEB780E00E949E0385E08A95F1F700006A
:1002F00019828981803188F5E981F0E0ED5FFE4F58
:100300008081813011F40E94A603E981F0E0ED5F65
:10031000FE4F8081811102C00E94A60385E08A956C
:10032000F1F7000081E00E94AE0385E08A95F1F7C5
:10033000000080E00E94AE0385E08A95F1F700009E
:1003400080E00E94AE0385E08A95F1F70000898184
:100350008F5F89838981803178F281E00E949E03DA
:1003600080913A02882339F0809102018F5F809357
:100370000201809102010F90DF91CF91FF91EF91E7
:10038000BF91AF919F918F917F916F915F914F91AD
:100390003F912F910F900FBE0F901F90189588E4FA
:1003A00080937000089584EA80937400E4E7F0E09D
:1003B00080818823ECF708958093730084E880930C
:1003C0007400E4E7F0E080818823ECF70895813041
:1003D00021F484EC8093740003C084E8809374005B
:1003E000E4E7F0E080818823ECF7809173000895C2
:1003F000CF93DF93D82FC62F0E94D3018D2F880F64
:100400000E94DC018C2F0E94DC0184E9809374003F
:10041000DF91CF910895CF93C82F0E94D3018C2FE5
:10042000880F81600E94DC0181E00E94E701C82FF3
:1004300081E00E94E70194E9909374002C2F30E052
:10044000322F2227A901482BCA01CF91089583E2B8
:100450000E940B020895CF93DF93C82FD62F0E94DE
:10046000D3018C2F880F0E94DC018D2F0E94DC01AC
:100470000E94D3018C2F880F81600E94DC0181E0F3
:100480000E94E701C82F80E00E94E70194E9909361
:1004900074002C2F30E0322F2227A901482BCA01EB
:1004A000DF91CF91089565EE80E40E942B020895BC
:1004B00063EE80E40E942B02089581E08093A801FE
:1004C0000E947F040E942C080E94D6026FEF82E0F7
:1004D0000E9440036FEF82E00E948903C1E00E9406
:1004E000530D0E94F90A0E940E04813051F480914C
:1004F0000101811106C00E94CC09C0930101C09383
:1005000000010E940E0481110AC080910001813017
:1005100031F40E94E90910920001109201018091CA
:10052000A801813059F480E00E9496030E949E0841
:1005300080913B02813011F40E94F1078091A80163
:10054000823079F48C2F0E9496030E949E0880913D
:100550003B02813031F480913A02813011F40E94E3
:10056000F1078091A801833009F0B9CF0E94C7023A
:100570000E948B0C80913B02813009F0B0CF8091BA
:100580003A02813009F0ABCF0E94F107A8CF80E09A
:1005900090E021E0FC01ED5FFE4F20830196803169
:1005A0009105C1F781E00E94960308950E941D0401
:1005B000813019F50E944A04813059F40E94960353
:1005C0008EE48093B0016EE480E090E00E94760DAE
:1005D00008950E942C04813059F40E9496038DE402
:1005E0008093B0016DE480E090E00E94760D089564
:1005F0000E941D048111DECF089580E090E00E94EA
:10060000680D8093B0010895813011F4DB9A08954C
:10061000811102C0DB980895823011F46093310299
:100620000895813021F4DC9A80931101089581119D
:1006300004C0DC98109211010895823031F48FE9E2
:100640009FE00197F1F700C000000895813011F498
:10065000DD9A0895811102C0DD980895823011F469
:100660006093A5010895813011F4DE9A08958111F7
:1006700002C0DE980895823011F460933902089523
:10068000813011F4AE9A0895811102C0AE98089598
:10069000823011F460939D010895813011F4AD9A78
:1006A0000895811102C0AD980895823011F46093CD
:1006B000A9010895813011F4AC9A0895811102C006
:1006C000AC980895823011F460939F0108958130B1
:1006D00011F4DF9A0895811102C0DF9808958230E5
:1006E00011F4609336020895813031F4E5E6F0E0CC
:1006F0008081846080830895811106C0E5E6F0E082
:1007000080818B7F80830895823011F460939E01F5
:100710000895813011F4AF9A0895811102C0AF9805
:100720000895823011F46093A0010895882321F088
:10073000813019F4C29A0895C2980895882321F04F
:10074000813019F4C49A0895C4980895882321F03B
:10075000813019F4C59A0895C5980895882321F029
:10076000813019F4C69A0895C6980895882321F017
:10077000813019F4969A089596980895882321F067
:10078000813019F4979A089597980895882341F035
:10079000813059F4E5E6F0E080818160808308953E
:1007A000E5E6F0E080818E7F80830895882341F024
:1007B000813059F4E5E6F0E080818260808308951D
:1007C000E5E6F0E080818D7F80830895882321F025
:1007D000813019F4A89A0895A8980895882321F0E3
:1007E000813019F4A99A0895A9980895882321F0D1
:1007F000813019F4AA9A0895AA980895882321F0BF
:10080000813019F4AB9A0895AB980895882321F0AC
:10081000813019F41A9A08951A980895C89B0BC04C
:100820008FE19EE40197F1F700C0000081E0C899D4
:1008300003C080E0089580E00895B09B0BC08FE175
:100840009EE40197F1F700C0000081E0B09B03C077
:1008500080E0089581E00895B19B0BC08FE19EE494
:100860000197F1F700C0000081E0B19B03C080E078
:10087000089581E008950F9B0BC08FE19EE40197DE
:10088000F1F700C0000081E00F9B03C080E00895F5
:1008900081E00895B39B0BC08FE19EE40197F1F7CF
:1008A00000C0000081E0B39B03C080E0089581E0B8
:1008B000089597B1907F8F70892B87B987EC90E06E
:1008C0000197F1F700C00000369A3699FECF24B1A7
:1008D00035B197B1907F97B9C901089580E00E9422
:1008E00059049927089581E00E945904089582E0EF
:1008F0000E945904089583E00E945904089587E0F6
:100900008BBB88EF8ABB8BE088BB84EF87BB15BAB3
:100910008FEF84BB12BA8CEF81BB28E923B984E640
:1009200082B9109265008FE18093640080E487B9FA
:1009300087EC86B99DE093BF82E987BF82E081BFE3
:100940009EBD88EC8BBD8ABD95BD83BD1092900085
:1009500087E689B986E0809395002AB9789408954E
:100960001F920F920FB60F9211248F939F93EF93C4
:10097000FF93E0911501F0E08CB1EA5EFE4F8083B9
:1009800081E080933A02809115018F5F8093150179
:1009900080911801885F80931401909115018091D6
:1009A0001401981305C01092150181E080933B0259
:1009B000FF91EF919F918F910F900FBE0F901F901D
:1009C0001895CF93DF9380913B02813009F000C3EB
:1009D000809119018434B9F480911A01823499F418
:1009E00080911B01873479F480911C018F3459F474
:1009F00080911D018E3439F480911E018E3419F4DA
:100A000081E00E949603809119018434B9F48091A9
:100A10001A01823499F480911B01873479F4809112
:100A20001C018F3459F480911D01863439F4809172
:100A30001E01863419F480E00E949603809119010A
:100A4000823511F580911A018734F1F480911B01F0
:100A50008234D1F480911C018F34B1F480911D0156
:100A60008E3491F480911E01853471F4C6E1D1E099
:100A7000698582E00E9440036A8582E00E944D03FE
:100A80006B8582E00E945A0380911901823511F52D
:100A900080911A018734F1F480911B018234D1F4E2
:100AA00080911C018435B1F480911D01873591F44A
:100AB00080911E018F3471F4C6E1D1E0698582E036
:100AC0000E9467036A8582E00E9474036B8582E05E
:100AD0000E94890380911901863409F580911A01D9
:100AE0008134E9F480911B018434C9F480911C01A4
:100AF0008534A9F480911D018F3489F480911E0101
:100B00008E3469F40E94CC092FEF81EE94E02150DD
:100B100080409040E1F700C000000E94E909809108
:100B200019018834C1F480911A018534A1F48091AF
:100B30001B01843581F480911C018F3461F4809114
:100B40001D018E3441F480911E018E3421F460E049
:100B500081E00E941103809119018834C1F48091D1
:100B60001A018534A1F480911B01843581F48091B0
:100B70001C018F3461F480911D01863441F4809111
:100B80001E01863421F460E080E00E941103809110
:100B900019018C34C9F480911A018535A9F480912A
:100BA0001B01863489F480911C018F3469F4809193
:100BB0001D01803549F480911E01873529F460912B
:100BC0001F0182E00E942603809119018C34C9F430
:100BD00080911A018535A9F480911B01863489F42E
:100BE00080911C01843569F480911D01803549F4A0
:100BF00080911E01873529F460911F0182E00E94D7
:100C00003303809119018C34F1F480911A018535F8
:100C1000D1F480911B018634B1F480911C0184359C
:100C200091F480911D018F3471F480911E018634FE
:100C300051F4C6E1D1E0698582E00E943303698501
:100C400082E00E942603809119018734B1F48091DB
:100C50001A01853491F480911B01843571F48091DF
:100C60001C01863551F480911D018F3431F480913F
:100C70001E018C3411F40E94050A809119018734F9
:100C8000B1F480911A01853491F480911B0184356F
:100C900071F480911C01833451F480911D018535DC
:100CA00031F480911E01823511F40E94130A809163
:100CB00019018734B1F480911A01853491F480913F
:100CC0001B01843571F480911C01883451F48091AA
:100CD0001D01853531F480911E018D3411F40E947F
:100CE000210A809119018734B1F480911A01853469
:100CF00091F480911B01843571F480911C018C3436
:100D000051F480911D01853531F480911E018D349F
:100D100011F40E943A0A809119018734B1F480914C
:100D20001A01853491F480911B01843571F480910E
:100D30001C01843551F480911D01853431F480917A
:100D40001E018D3411F40E94530A809119018734D9
:100D5000B1F480911A01853491F480911B0184359E
:100D600071F480911C01873451F480911D018E34FF
:100D700031F480911E018F3411F40E94730A809126
:100D800019018734B1F480911A01853491F480916E
:100D90001B01843571F480911C01873451F48091DA
:100DA0001D018E3431F480911E01843511F40E94AE
:100DB000A30A809119018734F1F480911A018534D6
:100DC000D1F480911B018435B1F480911C018134F0
:100DD00091F480911D018C3471F480911E018C344A
:100DE00051F40E94210A0E943A0A0E94530A0E946A
:100DF000730A0E94A30A809119018335B1F480918E
:100E00001A01853491F480911B01843571F480912D
:100E10001C01803551F480911D01853531F480919C
:100E20001E018D3411F40E94B10A809119018134A0
:100E3000B9F480911A01853599F480911B018435AC
:100E400079F480911C018F3459F480911D018E3406
:100E500039F480911E018F3419F481E08093A80148
:100E6000809119018D34B9F480911A01813499F47B
:100E700080911B018E3479F480911C01853559F4E1
:100E800080911D01853439F480911E018C3419F450
:100E900082E08093A801809119018E34B9F4809189
:100EA0001A018F3499F480911B01843579F4809173
:100EB0001C01813459F480911D01853539F48091EC
:100EC0001E01833519F483E08093A80180911901F4
:100ED0008335F1F480911A018334D1F480911B01A0
:100EE0008834B1F480911C01823591F480911D0108
:100EF000893471F480911E01843551F462E080E000
:100F000091E00E94090B62E080E091E00E94CA0B30
:100F1000809119018435B1F480911A01853491F4DE
:100F200080911B01833571F480911C01843551F44B
:100F300080911D01853431F480911E01853411F4B6
:100F40000E94A20C809119018335B1F480911A019D
:100F5000853491F480911B018E3471F480911C01D1
:100F6000843451F480911D01843431F480911E0148
:100F7000813411F40E94D40C80911901873441F519
:100F800080911A01853421F580911B01843501F58A
:100F900080911C018235E1F480911D018535C1F4F9
:100FA00080911E018E34A1F481E00E9496038FE1AE
:100FB0009EE40197F1F700C0000080E00E949603D4
:100FC0008FE19EE40197F1F700C000000E948C0AB7
:100FD00010923B0210923A0210921501DF91CF91CC
:100FE000089580911601833541F490911701809105
:100FF000B001981302C00E94E1040895CF93C82F56
:101000005498579881E00E94060483E58CB98FE9D3
:101010009FE00197F1F700C0000080E58CB9EFE98F
:10102000FFE03197F1F700C0000080E0E82FF0E02A
:10103000EF54FE4F90819CB9EFE9FFE03197F1F753
:1010400000C000008F5FC81788F780E00E94060488
:10105000549A579ACF9108950E94CF0161E083E29C
:101060000E94F80160E183E20E94F80180E090E0D4
:1010700021E0FC01ED5FFE4F20833FE748E351E0B4
:10108000315040405040E1F700C0000001968031EF
:10109000910579F780E090E0FC01ED5FFE4F108252
:1010A0002FE738E341E0215030404040E1F700C0F5
:1010B000000001968031910579F78FE090E00E9461
:1010C000700D9093A2018093A1018DE090E00E94A9
:1010D000700D9093A7018093A6018BE090E00E9491
:1010E000700D909338028093370289E090E00E945F
:1010F000700D9093A4018093A30187E090E00E947B
:10110000700D909397018093960185E090E00E9486
:10111000700D9093AD018093AC0183E090E00E944C
:10112000700D9093AB018093AA0181E090E00E9442
:10113000700D9093AF018093AE010895EF92FF92EE
:101140000F931F93CF93DF930E9458027C010E945C
:101150005302EC010E946E048C010E942702209130
:10116000AA013091AB01E216F30680F04091AE0186
:101170005091AF01E416F50608F4E9C0E3E0F1E0B0
:1011800041E0478316822E153F05C0F02091AE0145
:101190003091AF012E153F0560F0E3E0F1E01782DA
:1011A00021E026832091AE013091AF01E216F306D3
:1011B00028F0E3E0F1E021E02783268320919601E7
:1011C000309197018217930780F04091AC015091C4
:1011D000AD018417950708F4BFC0E3E0F1E041E0FA
:1011E0004187108628173907C0F04091AC01509113
:1011F000AD014817590760F0E3E0F1E0118641E0E6
:1012000040874091AC015091AD018417950728F0BB
:10121000E3E0F1E081E0818780878091370290915F
:1012200038020817190780F04091A3015091A401DA
:101230000417150708F495C0E3E0F1E041E04383AB
:10124000128280179107C0F08091A3019091A401B0
:101250008017910760F0E3E0F1E0138281E0828380
:101260008091A3019091A4010817190728F0E3E0E9
:10127000F1E081E0838382838091A1019091A201BA
:10128000C817D90788F04091A6015091A701C4174B
:10129000D50708F46BC0E3E0F1E041E04583148238
:1012A0008C179D0708F46CC08091A6019091A7014E
:1012B0008C179D0708F45FC0E3E0F1E0158281E040
:1012C00084832C173D0760F08091A6019091A701BF
:1012D000C817D90728F0E3E0F1E081E08583848333
:1012E00080913102882321F081E080930F0102C0B8
:1012F00010920F018091A501811104C080913902E3
:10130000882321F081E08093100102C01092100127
:1013100080919D01811114C080919F01811110C0A5
:101320008091A90181110CC080913602811108C001
:101330008091A001811104C080919E01882321F039
:1013400081E080930E0121C010920E011EC02E1567
:101350003F0508F433CF21CF2817390708F45DCFB4
:101360004BCF8017910708F487CF75CF8C179D0757
:1013700008F4B6CFA1CF2C173D0708F0ACCFB0CF03
:101380002C173D0708F4ACCFA6CFDF91CF911F916A
:101390000F91FF90EF900895CF93C0E06C2F82E003
:1013A0000E944D036C2F82E00E945A036C2F82E052
:1013B0000E9474036C2F82E00E9467038FE39FE119
:1013C0000197F1F700C00000CF5FCB3F39F7CF9115
:1013D0000895CF93CAEF6C2F82E00E944D036C2FCB
:1013E00082E00E945A036C2F82E00E9467036C2FF8
:1013F00082E00E9474038FE39FE10197F1F700C040
:101400000000C15041F7CF9108950E947704E1EBAD
:10141000F1E096E590839FE491831282838383E0D9
:101420000E94FE0708950E947B04E1EBF1E093E443
:10143000908395E591831282838383E00E94FE0767
:1014400008950E9453029F5FE1EBF1E023E02083C7
:1014500028E4218325E522832DE4238329E42483C2
:101460002EE4258321E426839783808788E00E94E9
:10147000FE0708950E9427029F5FE1EBF1E023E061
:1014800020832CE4218325E522832DE4238329E492
:1014900024832EE4258321E426839783808788E0B4
:1014A0000E94FE0708950E945802282F392F211507
:1014B000310511F421E030E021E0230FE1EBF1E010
:1014C00093E0908394E5918395E492833DE43383A4
:1014D00030E53483958392E596832783808788E07F
:1014E0000E94FE0708950E946E04E1EBF1E023E004
:1014F000208328E4218325E522832DE4238327E428
:1015000024832EE4258324E42683906897838087B0
:1015100088E00E94FE070895E1EBF1E082E080831D
:101520008DE481838FE4828384E4838389E48483EC
:1015300086E485838CE486838091A801878387E095
:101540000E94FE0708950E947304E1EBF1E097E426
:10155000908394E591831282838383E00E94FE0747
:101560000895CF938091990190919A01A0919B0148
:10157000B0919C010197A105B105C9F160E082E03D
:101580000E940403C0E06C2F82E00E9404038FE3FA
:101590009FE10197F1F700C00000CF5FCB3F99F7C3
:1015A00081E080930F019FEF23E284EF9150204070
:1015B0008040E1F700C00000CAEF6C2F82E00E947B
:1015C00004038FE39FE10197F1F700C00000C150D1
:1015D000A1F760E082E00E94040310920F011092D4
:1015E0003202109233021092340210923502CF91DF
:1015F0000895CF930E947704C82F0E947B04C43FB4
:1016000018F48F3F944018F083E08093A801CF91A5
:1016100008950F931F93CF93DF938C0181E0809304
:101620000401613009F0AEC0C0E0D0E081E00E946A
:10163000B60380E00E94BE0380E00E94C60380E003
:101640000E94D6038FE99FE00197F1F700C00000E8
:1016500080E00E94B60381E00E94BE0380E00E9409
:10166000C60380E00E94D6038FE99FE00197F1F75F
:1016700000C0000080E00E94B60380E00E94BE032C
:1016800081E00E94C60380E00E94D6038FE99FE0BC
:101690000197F1F700C0000080E00E94B60380E0EF
:1016A0000E94BE0380E00E94C60381E00E94D60330
:1016B0008FE99FE00197F1F700C0000021960C1719
:1016C0001D0708F0B3CF4FC0C0E0D0E080E00E941B
:1016D000B60380E00E94BE0380E00E94C60381E062
:1016E0000E94D6038FE99FE00197F1F700C0000048
:1016F00080E00E94B60380E00E94BE0381E00E9469
:10170000C60380E00E94D6038FE99FE00197F1F7BE
:1017100000C0000080E00E94B60381E00E94BE038A
:1017200080E00E94C60380E00E94D6038FE99FE01C
:101730000197F1F700C0000081E00E94B60380E04D
:101740000E94BE0380E00E94C60380E00E94D60390
:101750008FE99FE00197F1F700C0000021960C1778
:101760001D0708F0B3CF80E00E94B60380E00E941E
:10177000BE0380E00E94C60380E00E94D603109260
:10178000040103C0623079F79FCFDF91CF911F91A1
:101790000F9108950F931F93CF93DF938C0181E0F6
:1017A00080930401613009F0AEC0C0E0D0E081E078
:1017B0000E94E60380E00E94EE0380E00E94F603B0
:1017C00080E00E94FE038FE99FE00197F1F700C0DF
:1017D000000080E00E94E60381E00E94EE0380E0CA
:1017E0000E94F60380E00E94FE038FE99FE00197CC
:1017F000F1F700C0000080E00E94E60380E00E9454
:10180000EE0381E00E94F60380E00E94FE038FE970
:101810009FE00197F1F700C0000080E00E94E6031E
:1018200080E00E94EE0380E00E94F60381E00E94C7
:10183000FE038FE99FE00197F1F700C000002196B9
:101840000C171D0708F0B3CF4FC0C0E0D0E080E018
:101850000E94E60380E00E94EE0380E00E94F6030F
:1018600081E00E94FE038FE99FE00197F1F700C03D
:10187000000080E00E94E60380E00E94EE0381E029
:101880000E94F60380E00E94FE038FE99FE001972B
:10189000F1F700C0000080E00E94E60381E00E94B2
:1018A000EE0380E00E94F60380E00E94FE038FE9D1
:1018B0009FE00197F1F700C0000081E00E94E6037D
:1018C00080E00E94EE0380E00E94F60380E00E9428
:1018D000FE038FE99FE00197F1F700C00000219619
:1018E0000C171D0708F0B3CF80E00E94E60380E0EC
:1018F0000E94EE0380E00E94F60380E00E94FE0357
:101900001092040103C0623079F79FCFDF91CF912D
:101910001F910F9108951092A50110923902109213
:10192000310210929F011092A90110929D01109214
:10193000A00110929E011092360260E080E00E94A9
:1019400011030895CF93DF938FE090E00E94700D14
:10195000C1EBD1E088838DE090E00E94700D898317
:101960008BE090E00E94700D8A8389E090E00E94F5
:10197000700D8B8387E090E00E94700D8C8385E072
:1019800090E00E94700D8D8383E090E00E94700DC6
:101990008E8381E090E00E94700D8F8387E00E942B
:1019A000FE07DF91CF910895E6E1F1E09185628530
:1019B0002385848570E0792B7093A2016093A10147
:1019C00090E0922B9093A7018093A60195852685A0
:1019D0004785808930E0392B3093380220933702D5
:1019E00090E0942B9093A4018093A3019189228984
:1019F0004389848930E0392B3093970120939601F5
:101A000090E0942B9093AD018093AC019589268949
:101A10004789808D30E0392B3093AB012093AA01A8
:101A200090E0942B9093AF018093AE018FE090E013
:101A30000E94830D6091A6017091A7018DE090E056
:101A40000E94830D60913702709138028BE090E024
:101A50000E94830D6091A3017091A40189E090E040
:101A60000E94830D609196017091970187E090E04C
:101A70000E94830D6091AC017091AD0185E090E012
:101A80000E94830D6091AA017091AB0183E090E008
:101A90000E94830D6091AE017091AF0181E090E0F2
:101AA0000E94830D08950E942C04813011F48093CC
:101AB000A8010E941D04813019F482E08093A801DE
:101AC0000E943B04813019F483E08093A8010895BB
:101AD000E199FECF9FBB8EBBE09A99278DB3089505
:101AE000A8E1B0E042E050E00C948A0D262FE19985
:101AF000FECF9FBB8EBB2DBB0FB6F894E29AE19A46
:101B00000FBE019608950E94760D272F0C94770D35
:101B1000DC01CB01FC01E199FECF06C0FFBBEEBBAF
:101B2000E09A31960DB20D9241505040B8F70895A9
:041B3000F894FFCF57
:00000001FF
