:100000000C9446000C9463000C9463000C94630001
:100010000C9463000C9463000C9463000C946300D4
:100020000C9463000C9463000C9463000C946300C4
:100030000C9463000C9463000C9463000C946300B4
:100040000C9463000C9463000C9463000C946300A4
:100050000C9463000C9463000C9463000C94630094
:100060000C9463000C9463000C9463000C94630084
:100070000C9463000C9463000C9463000C94630074
:100080000C9463000C9463000C94630011241FBE55
:10009000CFEFD0E1DEBFCDBF11E0A0E0B1E0E2EBF9
:1000A000F2E102C005900D92A633B107D9F721E025
:1000B000A6E3B1E001C01D92AA3EB207E1F70E949B
:1000C00033050C9457090C940000CF93DF9300D0B4
:1000D000CDB7DEB79A83898381E390E021E330E0F6
:1000E000F90120812E7FFC01208380E990E0FC0152
:1000F000108289E290E029E1FC0120838AE290E00D
:1001000028E9FC01208385E990E026E0FC012083BA
:1001100080E091E09093E7018093E60189819A81E4
:1001200080589F4FFC011082789400000F900F9030
:10013000DF91CF910895CF93DF9300D01F92CDB779
:10014000DEB789837B836A8389818A3031F48A812F
:100150009B81BC018DE00E949B008BE290E0FC0142
:100160008081882F90E080729927892BB1F38CE2EF
:1001700090E02981FC01208380E090E00F900F90B7
:100180000F90DF91CF9108951F920F9200905F0022
:100190000F9211242F938F939F93EF93FF93CF93FD
:1001A000DF931F92CDB7DEB78091B901882331F577
:1001B0008CE290E0FC018081898389818B3711F486
:1001C0001092360189818D3739F481E08093B9012D
:1001D000809136018093BA0180913601882374F0B2
:1001E00080913601882F90E0875C9E4F2981FC0129
:1001F0002083809136018F5F8093360100000F903D
:10020000DF91CF91FF91EF919F918F912F910F905F
:1002100000925F000F901F901895CF93DF9300D04E
:10022000CDB7DEB79A83898389819A8180589F4FA1
:10023000FC0180818823B1F189819A818F579F4F7A
:10024000FC018081282F30E089819A81A9016EE02C
:1002500071E00E946B06892B39F489819A818D5750
:100260009F4F21E0FC01208389819A818F579F4F06
:10027000FC018081282F30E089819A81A90166E103
:1002800071E00E946B06892B39F489819A818C5721
:100290009F4F21E0FC01208389819A8180589F4FE4
:1002A000FC01108200000F900F90DF91CF91089514
:1002B000CF93DF9300D0CDB7DEB79A83898389814E
:1002C0009A818D579F4FFC018081882391F08EE1A8
:1002D00091E0892F8F938EE191E08F930E947906B0
:1002E0000F900F9089819A818D579F4FFC0110824A
:1002F00023C089819A818C579F4FFC01808188237C
:1003000091F08AE291E0892F8F938AE291E08F93B6
:100310000E9479060F900F9089819A818C579F4F88
:10032000FC01108209C0809137018F5F80933701F3
:10033000809137018A3018F200000F900F90DF9102
:10034000CF910895CF93DF9300D0CDB7DEB79A83D6
:1003500089838AE390E02AE330E0F9012081286074
:10036000FC0120838AE390E02AE330E0F901208158
:100370002061FC0120838AE390E02AE330E0F90168
:1003800020812062FC0120838AE390E02AE330E0B0
:10039000F90120812064FC01208384E390E024E3C0
:1003A00030E0F90120812064FC01208384E390E0A7
:1003B00024E330E0F90120812062FC01208384E302
:1003C00090E024E330E0F90120812061FC012083EA
:1003D0008AE390E02AE330E0F90120812068FC0103
:1003E000208384E690E024E630E0F9012081246057
:1003F000FC01208384E390E024E330E0F9012081D4
:100400002068FC01208387E390E027E330E0F901D6
:1004100020812064FC01208387E390E027E330E023
:10042000F90120812062FC01208387E390E027E32B
:1004300030E0F90120812061FC01208381E390E01C
:1004400021E330E0F90120812064FC01208381E375
:1004500090E021E330E0F90120812068FC01208355
:1004600084E690E024E630E0F90120812160FC017F
:10047000208384E690E024E630E0F90120812260C8
:10048000FC01208384E390E024E330E0F901208143
:100490002160FC01208384E390E024E330E0F90153
:1004A00020812260FC01208384E390E024E330E09B
:1004B000F90120812460FC01208384E390E024E39F
:1004C00030E0F90120812860FC0120838AE390E07C
:1004D0002AE330E0F90120812160FC0120838AE3D6
:1004E00090E02AE330E0F90120812260FC012083C2
:1004F00087E390E027E330E0F90120812160FC01EF
:10050000208387E390E027E330E0F9012081226037
:10051000FC01208382E290E022E230E0F9012081B8
:100520002068FC01208387E390E027E330E0F901B5
:1005300020812860FC0120838BE390E02BE330E0F6
:10054000F90120812160FC0120838BE390E02BE303
:1005500030E0F90120812260FC01208388E390E0F3
:1005600028E330E0F90120812160FC01208388E349
:1005700090E028E330E0F90120812260FC01208333
:1005800083E290E023E230E0F90120812068FC0161
:10059000208388E390E028E330E0F901208128609F
:1005A000FC01208300000F900F90DF91CF91089500
:1005B000CF93DF93CDB7DEB761970FB6F894DEBF68
:1005C0000FBECDBF988B8F87698B8F859889FC0173
:1005D0008081282F30E08989482F50E081E090E029
:1005E00002C0880F991F4A95E2F741E002970CF08C
:1005F00040E0842F90E082239323892B09F490C05C
:1006000080E090E0A0E2B1E489839A83AB83BC836D
:1006100020E030E04AE755E469817A818B819C8152
:100620000E94D605DC01CB018D839E83AF83B88702
:1006300020E030E040E85FE36D817E818F81988526
:100640000E94500588232CF481E090E09A878987E6
:100650003FC020E03FEF4FE757E46D817E818F81FF
:1006600098850E94D10518164CF520E030E040E254
:1006700051E469817A818B819C810E94D605DC01DD
:10068000CB01BC01CD010E945505DC01CB019A874D
:1006900089870FC080E991E09C878B878B859C853B
:1006A0000197F1F79C878B8789859A8501979A87AF
:1006B000898789859A85892B69F714C06D817E8128
:1006C0008F8198850E945505DC01CB019A87898727
:1006D00089859A859E878D878D859E850197F1F7FF
:1006E0009E878D878F859889FC018081282F30E037
:1006F0008989482F50E081E090E002C0880F991F5F
:100700004A95E2F741E002970CF040E0842F90E038
:1007100082239323892B11F080E003C081E001C084
:1007200081E061960FB6F894DEBF0FBECDBFDF91BA
:10073000CF910895CF93DF9300D0CDB7DEB79A83E2
:100740008983809138018F3F11F48091380189812C
:100750009A81FC0182858130B9F489819A81FC01FA
:100760008081813089F489819A81FC01948980910A
:100770003801981749F48BE390E02BE330E0F9015E
:1007800020812860FC01208389819A81FC01838576
:100790008130B9F489819A81FC018181813089F4A9
:1007A00089819A81FC01958980913801981749F4D3
:1007B0008BE390E02BE330E0F90120812061FC0124
:1007C000208389819A81FC0184858130B9F48981F3
:1007D0009A81FC018281813089F489819A81FC01AE
:1007E000968980913801981749F48BE390E02BE3C8
:1007F00030E0F90120812062FC01208389819A8107
:10080000FC0185858130B9F489819A81FC0183815D
:10081000813089F489819A81FC019789809138011E
:10082000981749F48BE390E02BE330E0F901208145
:100830002064FC01208389819A81FC0186858130B6
:10084000B9F489819A81FC018481813089F489819C
:100850009A81FC01908D80913801981749F485E3C5
:1008600090E025E330E0F90120812064FC01208341
:1008700089819A81FC0187858130B9F489819A81C7
:10088000FC018581813089F489819A81FC01918DF7
:1008900080913801981749F485E390E025E330E032
:1008A000F90120812062FC01208389819A81FC0169
:1008B00080898130B9F489819A81FC0186818130F7
:1008C00089F489819A81FC01928D80913801981771
:1008D00049F485E390E025E330E0F90120812061CF
:1008E000FC01208389819A81FC0181898130B9F4DE
:1008F00089819A81FC018781813089F489819A817B
:10090000FC01938D80913801981749F48BE390E0B6
:100910002BE330E0F90120812068FC0120838981EC
:100920009A81FC0182898130B9F489819A81FC0124
:100930008085813089F489819A81FC01948D809130
:100940003801981749F485E690E025E630E0F90192
:1009500020812460FC01208389819A81FC018389A4
:100960008130B9F489819A81FC018185813089F4D3
:1009700089819A81FC01958D80913801981749F4FD
:1009800085E390E025E330E0F90120812068FC0157
:100990002083809138018E3F09F05AC08BE390E0AC
:1009A0002BE330E0F9012081277FFC0120838BE3DA
:1009B00090E02BE330E0F90120812F7EFC012083C1
:1009C0008BE390E02BE330E0F90120812F7DFC01E7
:1009D00020838BE390E02BE330E0F90120812F7B33
:1009E000FC01208385E390E025E330E0F9012081DC
:1009F0002F7BFC01208385E390E025E330E0F901C3
:100A000020812F7DFC01208385E390E025E330E009
:100A1000F90120812F7EFC0120838BE390E02BE302
:100A200030E0F90120812F77FC0120838BE390E0F7
:100A30002BE330E0F90120812B7FFC0120838BE345
:100A400090E02BE330E0F90120812F77FC01208337
:100A5000809138018F5F8093380100000F900F90D4
:100A6000DF91CF910895CF93DF931F92CDB7DEB77B
:100A700086EC91E00E94A20189E391E00E9465006A
:100A800060E070E089E390E00E94D802898389E306
:100A900091E00E940D0189E391E00E945801F0CF9E
:100AA0000E94840508F481E008950E94B00588F052
:100AB0009F5798F0B92F9927B751B0F0E1F0660F22
:100AC000771F881F991F1AF0BA95C9F714C0B13063
:100AD00091F00E94CA05B1E008950C94CA05672FF1
:100AE000782F8827B85F39F0B93FCCF38695779592
:100AF0006795B395D9F73EF490958095709561957B
:100B00007F4F8F4F9F4F0895990F0008550FAA0BE5
:100B1000E0E8FEEF16161706E807F907C0F0121610
:100B20001306E407F50798F0621B730B840B950B13
:100B300039F40A2661F0232B242B252B21F4089568
:100B40000A2609F4A140A6958FEF811D811D089505
:100B500057FD9058440F551F59F05F3F71F047956E
:100B6000880F97FB991F61F09F3F79F08795089553
:100B7000121613061406551FF2CF4695F1DF08C072
:100B8000161617061806991FF1CF8695710561058F
:100B900008940895E894BB2766277727CB0197F937
:100BA00008950E94840508F48FEF08950E94E905D6
:100BB0000C945A060E944C0638F00E94530620F00E
:100BC000952311F00C9443060C94490611240C94BF
:100BD000CB050E94A80570F3959FC1F3950F50E0D7
:100BE000551F629FF001729FBB27F00DB11D639FDF
:100BF000AA27F00DB11DAA1F649F6627B00DA11D85
:100C0000661F829F2227B00DA11D621F739FB00D2A
:100C1000A11D621F839FA00D611D221F749F33279A
:100C2000A00D611D231F849F600D211D822F762F33
:100C30006A2F11249F5750409AF0F1F088234AF010
:100C4000EE0FFF1FBB1F661F771F881F915050407C
:100C5000A9F79E3F510580F00C9443060C94CB05F8
:100C60005F3FE4F3983ED4F3869577956795B79503
:100C7000F795E7959F5FC1F7FE2B880F911D96951D
:100C8000879597F9089597F99F6780E870E060E08D
:100C900008959FEF80EC089500240A941616170615
:100CA00018060906089500240A941216130614065D
:100CB00005060895092E0394000C11F4882352F0C0
:100CC000BB0F40F4BF2B11F460FF04C06F5F7F4F78
:100CD0008F4F9F4F0895FB01DC014150504030F091
:100CE0008D910190801919F40020B9F7881B990B98
:100CF0000895A0E0B0E0EFE7F6E00C943009AE0113
:100D00004B5F5F4FFA0161917191AF018091E601F4
:100D10009091E7010E948F06E2E00C944C09ABE051
:100D2000B0E0E5E9F6E00C9420096C017B018A0152
:100D3000FC0117821682838181FFCCC1CE0101960E
:100D40003C01F6019381F70193FD859193FF819119
:100D50007F01882309F4BAC1853239F493FD859166
:100D600093FF81917F01853229F4B60190E00E94C2
:100D70008608E7CF912C212C312CFFE1F315D8F018
:100D80008B3279F038F4803279F08332A1F4232D5C
:100D900020611DC08D3261F0803369F4232D216004
:100DA00016C0832D8260382EE32DE4603E2E2AC0CB
:100DB000F32DF8601DC037FC2DC020ED280F2A3020
:100DC00040F08E32B9F436FC81C1232D2064322EDE
:100DD00019C036FE06C08AE0989E200D1124922E7E
:100DE00011C0EAE02E9E200D1124222EF32DF06278
:100DF0003F2E08C08C3621F4832D8068382E02C027
:100E0000883641F4F70193FD859193FF81917F012D
:100E10008111B3CF982F9F7D9554933028F40C5FA8
:100E20001F4F9FE399830DC0833631F0833771F0F4
:100E3000833509F059C021C0F801808189830E5F94
:100E40001F4F88248394912C530113C02801F2E092
:100E50004F0E511CF801A080B18036FE03C0692DF1
:100E600070E002C06FEF7FEFC5010E947B084C016C
:100E70008201F32DFF773F2E16C0280122E0420E9B
:100E8000511CF801A080B18036FE03C0692D70E0CE
:100E900002C06FEF7FEFC5010E9470084C01F32D77
:100EA000F0683F2E820133FC1BC0822D90E0881633
:100EB0009906B0F4B60180E290E00E9486082A9478
:100EC000F4CFF50137FC859137FE81915F01B601C2
:100ED00090E00E94860821102A9421E0821A91084D
:100EE0008114910471F7E8C0843611F0893641F518
:100EF000F80137FE07C060817181828193810C5FA8
:100F00001F4F08C060817181072E000C880B990B60
:100F10000E5F1F4FF32DFF763F2E97FF09C0909570
:100F20008095709561957F4F8F4F9F4FF0683F2E52
:100F30002AE030E0A3010E94C208882E861845C02E
:100F4000853731F4232D2F7EB22E2AE030E025C0E4
:100F5000932D997FB92E8F36C1F018F4883579F02A
:100F6000B5C0803719F0883721F0B0C0E92FE061B3
:100F7000BE2EB4FE0DC0FB2DF460BF2E09C034FEA2
:100F80000AC0292F2660B22E06C028E030E005C036
:100F900020E130E002C020E132E0F801B7FE07C0F6
:100FA00060817181828193810C5F1F4F06C06081D7
:100FB000718180E090E00E5F1F4FA3010E94C20884
:100FC000882E8618FB2DFF773F2E36FE0DC0232D71
:100FD0002E7FA22E891458F434FE0BC032FC09C0B7
:100FE000832D8E7EA82E05C0B82CA32C03C0B82C50
:100FF00001C0B92CA4FE0FC0FE01E80DF11D8081D7
:10100000803321F49A2D997EA92E09C0A2FE06C034
:10101000B394B39404C08A2D867809F0B394A3FCEA
:1010200011C0A0FE06C0B21488F4280C922C9B18A4
:101030000EC0B21460F4B60180E290E00E9486080F
:10104000B394F7CFB21418F42B1802C0982C212CAB
:10105000A4FE10C0B60180E390E00E948608A2FEC4
:1010600017C0A1FC03C088E790E002C088E590E0CB
:10107000B6010CC08A2D867859F0A1FE02C08BE221
:1010800001C080E2A7FC8DE2B60190E00E948608D4
:10109000891438F4B60180E390E00E9486089A949F
:1010A000F7CF8A94F301E80DF11D8081B60190E03D
:1010B0000E9486088110F5CF222009F442CEB601A5
:1010C00080E290E00E9486082A94F6CFF60186819D
:1010D000978102C08FEF9FEF2B96E2E10C943C09C1
:1010E000FC010590615070400110D8F780959095F3
:1010F0008E0F9F1F0895FC016150704001900110F8
:10110000D8F7809590958E0F9F1F08950F931F938A
:10111000CF93DF93FB01238121FD03C08FEF9FEF6E
:101120002CC022FF16C04681578124813581421789
:10113000530744F4A081B1819D012F5F3F4F31835C
:1011400020838C93268137812F5F3F4F37832683FF
:1011500014C08B01EC01FB010084F185E02D0995A1
:10116000892BE1F6D80116968D919C9117970196DF
:1011700017969C938E931697CE01DF91CF911F9176
:101180000F910895FA01AA27283051F1203181F1F9
:10119000E8946F936E7F6E5F7F4F8F4F9F4FAF4F7F
:1011A000B1E03ED0B4E03CD0670F781F891F9A1F92
:1011B000A11D680F791F8A1F911DA11D6A0F711D46
:1011C000811D911DA11D20D009F468943F912AE052
:1011D000269F11243019305D3193DEF6CF0108953A
:1011E000462F4770405D4193B3E00FD0C9F7F6CF6B
:1011F000462F4F70405D4A3318F0495D31FD405233
:10120000419302D0A9F7EACFB4E0A69597958795C8
:1012100077956795BA95C9F70097610571050895A7
:101220009B01AC010A2E0694579547953795279553
:10123000BA95C9F7620F731F841F951FA01D0895EB
:101240002F923F924F925F926F927F928F929F92D6
:10125000AF92BF92CF92DF92EF92FF920F931F93C4
:10126000CF93DF93CDB7DEB7CA1BDB0B0FB6F89475
:10127000DEBF0FBECDBF09942A88398848885F84B5
:101280006E847D848C849B84AA84B984C884DF8026
:10129000EE80FD800C811B81AA81B981CE0FD11D0A
:1012A0000FB6F894DEBF0FBECDBFED010895F894E0
:0212B000FFCF6E
:1012B20000000002000000009B00000000007B54C0
:1012C20041534B317D007B5441534B327D00486189
:1012D2006C6C6F205441534B310048616C6C6F2031
:0612E2005441534B3200A1
:00000001FF
